:08000000803102288731FD2F39
:100672008C3021009E0008001630210099000800ED
:1006820088302B008E009001FA308F000D14080084
:1006920090302A00950096019301023094000800E0
:1006A2002B000E1770088F00710890000D140800BF
:1006B200720871047004031908008030F206080001
:1006C200703021009B0080309C009A019D011C1B10
:1006D2000800682B83317923833100302000C20067
:1006E2000030C3000030C40085310A2583316E2BEF
:1006F2008331E023833183316123833183313D238D
:1007020083318331392383318331492383318331E7
:1007120041230800FB007B082000A000A101A201E8
:100722002008F0002108F1002208F2008E30A30018
:100732002308F300F40184311F247008F8007108C3
:10074200F9007208FA000800F21FBB2B7009F600CC
:100752007109F7007209F800F60A0319F70A03197A
:10076200F80A00307607F0000030773DF100803063
:10077200783DF200F51FD12B7309F6007409F700DA
:100782007509F800F60A0319F70A0319F80A003086
:100792007607F3000030773DF4008030783DF500B5
:1007A2008030F2068030F50675087202031D0800DB
:1007B20074087102031D0800730870020800220009
:1007C20090018F018C018D018E0107302100900074
:1007D200FF308C00FD308D00FF308E00FF308F0027
:1007E200FF3023008F00FC308E003F308D00073039
:1007F20090003F308C0024008F0190018D018C010C
:100802008E0121009717250090018C018D018E0128
:100812008F01FF3026008C00FF308D00FF308E00EC
:10082200FF308F00073090003F3027008C00F030FF
:100832008D00FF308E00FF308F000800730803190F
:10084200272C720871047004031D382C0030F0004C
:100852000030F1000030F20008000130F5007508A8
:10086200F3070130F236F10CF00C890B332CFE3019
:1008720072050319512C2E2C0130F5007508F3076F
:100882000130F007003003180130F107003003187F
:100892000130F2070130F236F10CF00C890B4C2CCE
:1008A200FF30720503195E2C3D2C0130F30201303A
:1008B200F035F10DF20D890B592CF11B642C02302D
:1008C20073020318562C73186C2CFF30F0057F301E
:1008D200F105FF30F2050310F30C7308F500F60181
:1008E200F7011030F535F60DF70D890B732C7508ED
:1008F200F0047608F1047708F2047408031908007A
:10090200F217080020003408B8003508B90036088C
:10091200BA000310390D3A0DBB003B08C100410873
:10092200031D9C2C0030B7000030B6000030B5002B
:100932000030B40008003408B8003508B9003608A1
:10094200BA001730BA36B90CB80C890BA32C380888
:10095200BB003B08BC00B517FF30B405FF30B5053E
:100962000030B6053408BD003508BE003608BF00A9
:10097200C0018E30C102C11FDA2C4108803A8F3E7D
:100982000318CC2C0030B7000030B6000030B500A0
:100992000030B40008000130C036BF0CBE0CBD0CE4
:1009A200890BCD2C0130B8003808C1070319F32C8C
:1009B200CC2C18304102031CF02C0030B700003060
:1009C200B6000030B5000030B40008000130BD357B
:1009D200BE0DBF0DC00D890BE82C0130C1024108CC
:1009E200031DE72C3C080319012DBD09BE09BF09EF
:1009F200C009BD0A0319BE0A0319BF0A0319C00AB6
:100A02004008B7003F08B6003E08B5003D08B400F4
:100A120008000330840088308500003FF000013F69
:100A2200F100023FF20020004208F3004308F40004
:100A32004408F5008331A523853103182B2D03309B
:100A4200840088308500003F2000C200013FC300BF
:100A5200023FC40020004208F0004308F1004408AD
:100A6200F2000030F3000030F4000030F500833172
:100A7200A52385310318442D00302000C200003028
:100A8200C3000030C40020004208F8004308F90007
:100A92004408FA000030840088308500003FF000EE
:100AA200013FF100023FF200833159238531700882
:100AB200FB007108FC007208FD00873108278531B0
:100AC20078082000C2007908C3007A08C4001230F6
:100AD200F8008330F9003B30FA004208FB0043087B
:100AE200FC004408FD008531AC25853178082000E2
:100AF200C5007908C6007A08C7000630840088302D
:100B02008500000883318B23853178082000A700F7
:100B12007908A8007A08A9004508A4004608A5009B
:100B22004708A60086315426853120002408B400E7
:100B32002508B5002608B6008431832485312000BB
:100B42003508C9003408C8004908F1004808F00017
:100B52008331512308007B082000A0007C08A100FB
:100B62007D08A2000310210D220DA3002308A80076
:100B72002808031DC32D0030F8000030F9000030B2
:100B8200FA0008007808A0007908A1007A08A200FB
:100B92000310210D220DA3002308A9002908031D1B
:100BA200D92D0030F8000030F9000030FA000800BA
:100BB2000030A5000030A6000030A70089302907C8
:100BC200A0002008A8027B08A0007C08A1007D08E4
:100BD200A2001030A236A10CA00C890BEB2D20082C
:100BE200A3002308A9007808A0007908A1007A08C8
:100BF200A2001030A236A10CA00C890BFB2D2008FC
:100C0200A3002308A9068030A0002008A905FC172C
:100C1200FF30FB05FF30FC050030FD05F917FF3002
:100C2200F805FF30F9050030FA051830A000200859
:100C3200A4000130A535A60DA70D890B1B2E7A083D
:100C42007D02031D2A2E79087C02031D2A2E7808B4
:100C52007B02031C332E7808FB027908FC3B7A08DE
:100C6200FD3B25140130FB35FC0DFD0D890B342EA7
:100C72000130A402031D1A2E2508F0002608F100F7
:100C82002708F2002808A0002008F3002908A10084
:100C92002108F40084311F247008F8007108F9005B
:100CA2007208FA00080020002408AA002508AB00F8
:100CB2002608AC0003102B0D2C0DAD002D08AE0044
:100CC2002E08031D6B2E0030A4000030A50000305A
:100CD200A60008002708AA002808AB002908AC00D3
:100CE20003102B0D2C0DAD002D08B3003308031D8E
:100CF200812E0030A4000030A5000030A6000800BC
:100D020033087B3EAA002A08AE072408AA00250859
:100D1200AB002608AC001030AC36AB0CAA0C890B29
:100D22008D2E2A08AD002D08B3002708AA00280836
:100D3200AB002908AC001030AC36AB0CAA0C890B06
:100D42009D2E2A08AD002D08B3068030AA002A087D
:100D5200B305A517A817FF30A705FF30A805003077
:100D6200A9050030AF000030B0000030B1000730FC
:100D7200AA002A08B200241CC42E2708AF0728089C
:100D8200B03D2908B13D0130A636A50CA40C890B53
:100D9200C52E0130A735A80DA90D890BCB2E013028
:100DA200B202031DBC2E0930AA002A08B200241C7C
:100DB200E02E2708AF072808B03D2908B13D0130D1
:100DC200A636A50CA40C890BE12E0130B136B00C6D
:100DD200AF0C890BE72E0130B202031DD82E2F086B
:100DE200F0003008F1003108F2002E08AA002A08AB
:100DF200F3003308AB002B08F40084311F24700881
:100E02002000A4007108A5007208A6000800780856
:100E12002000A0007908A1007A08A2000310210D89
:100E2200220DA3002308A6007B08A0007C08A100D5
:100E32007D08A2000310210D220DA3002308A500A6
:100E420026080319302F250826020318372F2603F8
:100E5200FF3A2507A00019302002031C372F7B0818
:100E6200F8007C08F9007D08FA000800250803193B
:100E72000800260825020318462F2503FF3A2607F5
:100E8200A00019302002031808000630A000200834
:100E9200A400FA1BA417FD1B2417F917FF30F8054D
:100EA200FF30F9050030FA05FC17FF30FB05FF3073
:100EB200FC050030FD05250826020318822F0130AB
:100EC200FB35FC0DFD0D890B612F0130A5022508B4
:100ED200260603197D2F0130A402240807390319BD
:100EE2007D2F602F0130FA36F90CF80C890B742F24
:100EF2000130A0002008A607260825060319A72FFF
:100F0200732F260825020318A72F0130F835F90D93
:100F1200FA0D890B872F0130A60225082606031930
:100F2200A32F0130A402240807390319A32F862F07
:100F32000130FD36FC0CFB0C890B9A2F0130A0000E
:100F42002008A50726082506031D992FA41FB92FDF
:100F5200FF30F806FF30F906FF30FA060130F807D5
:100F6200003003180130F907003003180130FA0786
:100F7200241FCB2FFF30FB06FF30FC06FF30FD069F
:100F82000130FB07003003180130FC070030031862
:100F92000130FD07A4017808FB077908FC3D7A08B7
:100FA200FD3DFD1FE62FFF30FB06FF30FC06FF3044
:100FB200FD060130FB07003003180130FC0700304A
:100FC20003180130FD07A401A40A7B08F0007C0885
:100FD200F1007D08F2002608A0002008F300240892
:100FE200A1002108F40084311F247008F800710860
:100FF200F9007208FA000800200083316B2BC33419
:0C100200F5343C34123483344034403464
:020000040001F9
:08000000FF3FFF3FFF3FFF3F00
:04000E00E4FFFFFF0D
:00000001FF
