:08000000803102288731F12F45
:100DC000053406342900901408008F3021009E005D
:100DD000080016302100990008007A08F800790808
:100DE000F700080029000F08FA000E08F9000800B3
:100DF0007A082000A1007908A00008007A082000E5
:100E0000A3007908A20008002B000E1379088F00B8
:100E10007A0890000D140800F9002000111E0D2F13
:100E2000790823009A00080088302B008E0090017A
:100E3000FA308F000D14080090302A0095009601BA
:100E4000930102309400080090302A0099009A0122
:100E500097010630980008007A3021009B0080300E
:100E60009C009A019D0108007330290091009201B5
:100E70008E018F01013090000800FA007A08F90015
:100E8000F90DF90D2900100879060339790690004B
:100E9000101408008731AA27873187312C27873122
:100EA0008631E92687318631E52687318731242747
:100EB000873187313427873187311C278731873144
:100EC00014278731873165270800083023009F00E9
:100ED00090309D0024309E00A0309B0001309C008B
:100EE0000030F9000030FA008631ED2687310030FD
:100EF000F9000030FA008631FE2687310030F90013
:100F00000030FA008631F826F401080087314A27BC
:100F100087317D0887313D2787318631E226873149
:100F20008631F22687317A08F6007908F500F1302B
:100F3000F9000330FA0087310427873176088731BA
:100F40000C2787313430FB00F230890BA52FFB0BC7
:100F5000A52F8D2F220090018F018C018D018E0114
:100F6000073021009000FF308C00FD308D00BD3037
:100F70008E00FF308F00FF3023008F00FC308E008A
:100F80002F308D00073090003F308C0024008F01FF
:100F900090018D018C018E01210097172500900191
:100FA0008C018D018E018F01FF3026008C00FF30F7
:100FB0008D00FF308E00FF308F00073090003F30F3
:100FC00027008C00F0308D00FF308E00FF308F0046
:100FD00010303C00BD000C30B90024303D00A100B1
:100FE00008008631E0268731FC008631E126FD00CD
:100FF000F001F101F201F301F40120008731862FA5
:020000040001F9
:08000000FF3FFF3FFF3FFF3F00
:04000E00E4FFFFFF0D
:00000001FF
