:08000000803102288731FD2F39
:100F180016302100990008008731BE2787318731B4
:100F28009927873187318C270800703021009B0072
:100F380080309C009A019D011C1B0800A02F87315E
:100F480090278731031022008C1E0314031CAF2F37
:100F580022008C16B12F22008C121530F1004B3074
:100F6800F000BE30890BB62FF00BB62FF10BB62F61
:100F78000032A62F220090018F018C018D018E0175
:100F8800073021009000DF308C00FF308D00FF30EB
:100F98008E00FF308F00FF3023008F00FC308E0062
:100FA8003F308D00073090003F308C0024008F01C7
:100FB80090018D018C018E01210097172500900169
:100FC8008C018D018E018F01FF3026008C00FF30CF
:100FD8008D00FF308E00FF308F00073090003F30CB
:100FE80027008C00F0308D00FF308E00FF308F001E
:080FF800080020008731A32F3F
:020000040001F9
:08000000FF3FFF3FFF3FFF3F00
:04000E00E4FFFFFF0D
:00000001FF
