:08000000803102288731F72F3F
:100E2600290090140800833021009E000800163027
:100E36002100990008007B08F7007A08F6000800F0
:100E460029000F08FB000E08FA0008007B082000A6
:100E5600A1007A08A00008007B082000A3007A08F9
:100E6600A2000800FA002000111E362F7A0823007F
:100E76009A000800723021009B0080309C009A0185
:100E86009D01080073302900910092018E018F01A7
:100E9600013090000800FB007B08FA00FA0DFA0DFD
:100EA600290010087A0603397A0690001014080003
:100EB6008731AF27873187313D27873187311A2719
:100EC6008731873116278731873145278731873123
:100ED6006D270800083023009F0090309D002430C5
:100EE6009E00CF309B009C010030FA000030FB00D2
:100EF60087311E2787310030FA000030FB0087312A
:100F06002F2787310030FA000030FB008731292770
:100F1600F401080087315B278731750887314E2732
:100F260087318731132787318731232787317B081C
:100F3600F9007A08F80079088731352787310230B9
:100F4600FD000430FC00BA30890BA72FFC0BA72F3D
:100F5600FD0BA72F0032942F220090018F018C01E8
:100F66008D018E01073021009000DF308C00BF30EC
:100F76008D00FF308E00FF308F00FF3023008F0082
:100F8600FC308E002F308D00073090003F308C00F3
:100F960024008F0190018D018C018E01210097178D
:100FA600250090018C018D018E018F01FF302600F6
:100FB6008C00FF308D00FF308E00FF308F00073031
:100FC60090003F3027008C00F0308D00FF308E00FF
:100FD600FF308F000F303C00BD0024303D009E00E6
:100FE6000C303C00B9000800F001F101F201F301F8
:0A0FF600F401F501200087318D2F72
:020000040001F9
:08000000FF3FFF3FFF3FFF3F00
:04000E00E4FFFFFF0D
:00000001FF
