:08000000803102288731FD2F39
:100F4A0016302100990008008731B5278731AC2F68
:100F5A00723021009B0080309C009A019D0108009C
:100F6A008731BE2787318731AD2787318731A5275A
:100F7A000800220090018F018C018D018E0107303B
:100F8A0021009000FF308C00FF308D00FF308E0072
:100F9A00FF308F00FF3023008F00FC308E003F307F
:100FAA008D00073090003F308C0024008F019001A3
:100FBA008D018C018E0121009717250090018C016B
:100FCA008D018E018F01FF3026008C00FF308D00CD
:100FDA00FF308E00FF308F00073090003F3027002F
:100FEA008C00F0308D00FF308E00FF308F0008003B
:060FFA0020008731A92F41
:020000040001F9
:08000000FF3FFF3FFF3FFF3F00
:04000E00E4FFFFFF0D
:00000001FF
