:08000000803102288731FA2F3C
:100606008C3021009E000800163021009900080059
:1006160088302B008E009001FA308F000D140800F0
:1006260090302A009500960193010230940008004C
:1006360090302A0099009A01970106309800080028
:100646002B000E1770088F00710890000D1408001B
:10065600720871047004031908008030F20608005D
:1006660073302900910092018E018F0101309000B4
:100676000800703021009B0080309C009A019D018B
:100686001C1B0800432B8331542383310030200088
:10069600C200A030C3004030C40086314A268331F0
:1006A600492B8331C123833183313C238331833109
:1006B6000723833183310323833183311B23833122
:1006C60083313323833183311323833183310B23E6
:1006D6000800FB007B082000A000A101A201200861
:1006E600F0002108F1002208F2008E30A300230852
:1006F600F300F401843103247008F8007108F9004E
:100706007208FA000800F21F9C2B7009F6007109A6
:10071600F7007209F800F60A0319F70A0319F80A2E
:1007260000307607F0000030773DF1008030783DEC
:10073600F200F51FB22B7309F6007409F70075096C
:10074600F800F60A0319F70A0319F80A00307607C3
:10075600F3000030773DF4008030783DF5008030BE
:10076600F2068030F50675087202031D080074084B
:100776007102031D08007308700208002200900130
:100786008F018C018D018E01073021009000FF3012
:100796008C00FD308D00BF308E00FF308F00FF30A3
:1007A60023008F00FC308E002F308D000730900024
:1007B6003F308C0024008F0190018D018C018E0149
:1007C60021009717250090018C018D018E018F0164
:1007D600FF3026008C00FF308D00FF308E00FF308A
:1007E6008F00073090003F3027008C00F0308D00DE
:1007F600FF308E00FF308F000C303C00B90008003F
:10080600730803190B2C720871047004031D1C2C49
:100816000030F0000030F1000030F2000800013036
:10082600F5007508F3070130F236F10CF00C890B70
:10083600172CFE3072050319352C122C0130F500E9
:100846007508F3070130F007003003180130F1078F
:10085600003003180130F2070130F236F10CF00CCB
:10086600890B302CFF3072050319422C212C0130E4
:10087600F3020130F035F10DF20D890B3D2CF11B21
:10088600482C0230730203183A2C7318502CFF3090
:10089600F0057F30F105FF30F2050310F30C730805
:1008A600F500F601F7011030F535F60DF70D890B59
:1008B600572C7508F0047608F1047708F2047408DA
:1008C60003190800F217080020003408B80035089C
:1008D600B9003608BA000310390D3A0DBB003B08C3
:1008E600C1004108031D802C0030B7000030B6005F
:1008F6000030B5000030B40008003408B8003508F0
:10090600B9003608BA001730BA36B90CB80C890BDC
:10091600872C3808BB003B08BC00B517FF30B40570
:10092600FF30B5050030B6053408BD003508BE00F9
:100936003608BF00C0018E30C102C11FBE2C41085F
:10094600803A8F3E0318B02C0030B7000030B60056
:100956000030B5000030B40008000130C036BF0CCE
:10096600BE0CBD0C890BB12C0130B8003808C1078C
:100976000319D72CB02C18304102031CD42C00309C
:10098600B7000030B6000030B5000030B4000800F3
:100996000130BD35BE0DBF0DC00D890BCC2C01300D
:1009A600C1024108031DCB2C3C080319E52CBD09E7
:1009B600BE09BF09C009BD0A0319BE0A0319BF0A49
:1009C6000319C00A4008B7003F08B6003E08B50044
:1009D6003D08B40008007B082000A0007C08A100A8
:1009E6007D08A2000310210D220DA3002308A800F4
:1009F6002808031D052D0030F8000030F9000030EE
:100A0600FA0008007808A0007908A1007A08A20078
:100A16000310210D220DA3002308A9002908031D98
:100A26001B2D0030F8000030F9000030FA000800F5
:100A36000030A5000030A6000030A7008930290745
:100A4600A0002008A8027B08A0007C08A1007D0861
:100A5600A2001030A236A10CA00C890B2D2D200867
:100A6600A3002308A9007808A0007908A1007A0845
:100A7600A2001030A236A10CA00C890B3D2D200837
:100A8600A3002308A9068030A0002008A905FC17AA
:100A9600FF30FB05FF30FC050030FD05F917FF3080
:100AA600F805FF30F9050030FA051830A0002008D7
:100AB600A4000130A535A60DA70D890B5D2D7A087A
:100AC6007D02031D6C2D79087C02031D6C2D7808B0
:100AD6007B02031C752D7808FB027908FC3B7A081B
:100AE600FD3B25140130FB35FC0DFD0D890B762DE4
:100AF6000130A402031D5C2D2508F0002608F10034
:100B06002708F2002808A0002008F3002908A10001
:100B16002108F400843103247008F8007108F900F4
:100B26007208FA00080020002408AA002508AB0075
:100B36002608AC0003102B0D2C0DAD002D08AE00C1
:100B46002E08031DAD2D0030A4000030A500003096
:100B5600A60008002708AA002808AB002908AC0050
:100B660003102B0D2C0DAD002D08B3003308031D0B
:100B7600C32D0030A4000030A5000030A6000800F8
:100B860033087B3EAA002A08AE072408AA002508D7
:100B9600AB002608AC001030AC36AB0CAA0C890BA7
:100BA600CF2D2A08AD002D08B3002708AA00280873
:100BB600AB002908AC001030AC36AB0CAA0C890B84
:100BC600DF2D2A08AD002D08B3068030AA002A08BA
:100BD600B305A517A817FF30A705FF30A8050030F5
:100BE600A9050030AF000030B0000030B10007307A
:100BF600AA002A08B200241C062E2708AF072808D8
:100C0600B03D2908B13D0130A636A50CA40C890BD0
:100C1600072E0130A735A80DA90D890B0D2E013021
:100C2600B202031DFE2D0930AA002A08B200241CB8
:100C3600222E2708AF072808B03D2908B13D01300C
:100C4600A636A50CA40C890B232E0130B136B00CA8
:100C5600AF0C890B292E0130B202031D1A2E2F0864
:100C6600F0003008F1003108F2002E08AA002A0828
:100C7600F3003308AB002B08F4008431032470081A
:100C86002000A4007108A5007208A6000800033021
:100C9600840088308500003FF000013FF100023FEC
:100CA600F20020004208F3004308F4004408F5006F
:100CB60083318623863103186B2E033084008830F7
:100CC6008500003F2000C200013FC300023FC40070
:100CD6000030F0000030F1000030F2002000420841
:100CE600F3004308F4004408F50083318623863177
:100CF600031C842E00302000C2000030C3000030E8
:100D0600C40020004208F8004308F9004408FA002D
:100D16000030840088308500003FF000013FF1007C
:100D2600023FF20083312B2386317008FB007108E5
:100D3600FC007208FD0087310527863178082000FF
:100D4600C2007908C3007A08C4004208F0004308CC
:100D5600F1004408F2000030F3000030F4000030E7
:100D6600F5008331862386310318C02E003020001B
:100D7600C2000030C3000030C4001230F8008330D7
:100D8600F9003B30FA0020004208FB004308FC0053
:100D96004408FD008431EE24863178082000C50021
:100DA6007908C6007A08C7000630840088308500B6
:100DB600000883316C23863178082000A700790863
:100DC600A8007A08A9004508A4004608A500470817
:100DD600A60085319625863120002408B400250812
:100DE600B5002608B6008431672486312000350810
:100DF600C9003408C8004908F1004808F0008331EA
:100E06002323080078082000A0007908A1007A08AA
:100E1600A2000310210D220DA3002308A6007B08C3
:100E2600A0007C08A1007D08A2000310210D220D60
:100E3600A3002308A500260803192D2F250826023E
:100E46000318342F2603FF3A2507A0001930200285
:100E5600031C342F7B08F8007C08F9007D08FA0093
:100E66000800250803190800260825020318432F41
:100E76002503FF3A2607A0001930200203180800B0
:100E86000630A0002008A400FA1BA417FD1B241797
:100E9600F917FF30F805FF30F9050030FA05FC17A1
:100EA600FF30FB05FF30FC050030FD052508260256
:100EB60003187F2F0130FB35FC0DFD0D890B5E2FCE
:100EC6000130A5022508260603197A2F0130A4024F
:100ED6002408073903197A2F5D2F0130FA36F90CE9
:100EE600F80C890B712F0130A0002008A6072608F0
:100EF60025060319A42F702F260825020318A42FF0
:100F06000130F835F90DFA0D890B842F0130A60250
:100F1600250826060319A02F0130A4022408073944
:100F26000319A02F832F0130FD36FC0CFB0C890B17
:100F3600972F0130A0002008A50726082506031DC7
:100F4600962FA41FB62FFF30F806FF30F906FF30A4
:100F5600FA060130F807003003180130F9070030AF
:100F660003180130FA07241FC82FFF30FB06FF3095
:100F7600FC06FF30FD060130FB0700300318013088
:100F8600FC07003003180130FD07A4017808FB07B1
:100F96007908FC3D7A08FD3DFD1FE32FFF30FB0677
:100FA600FF30FC06FF30FD060130FB07003003185A
:100FB6000130FC07003003180130FD07A401A40A24
:100FC6007B08F0007C08F1007D08F2002608A000EE
:100FD6002008F3002408A1002108F400843103242A
:100FE6007008F8007108F9007208FA00080020007D
:100FF600CA01CB0120008331462BC334F5343C347F
:081006001234833440344034FD
:020000040001F9
:08000000FF3FFF3FFF3FFF3F00
:04000E00E4FFFFFF0D
:00000001FF
