:08000000803102288731F12F45
:100E1C0000340134290090140800833021009E0016
:100E2C00080016302100990008007A08F8007908AB
:100E3C00F700080029000F08FA000E08F900080056
:100E4C007A082000A1007908A00008007A08200088
:100E5C00A3007908A2000800F9002000111E332F0E
:100E6C00790823009A0008007A3021009B0080301A
:100E7C009C009A019D010800733029009100920199
:100E8C008E018F01013090000800FA007A08F900F9
:100E9C00F90DF90D2900100879060339790690002F
:100EAC00101408008731A927873187313A278731F9
:100EBC0087311727873187311327873187314227AD
:100ECC0087318731882708008731582787317C087C
:100EDC0087314B278731873110278731873120277E
:100EEC0087317A08F6007908F500760887313227C1
:100EFC0087310630FB003030890B822FFB0B822FA1
:100F0C000032712F083023009F0090309D00243058
:100F1C009E00A0309B0001309C000030F900003096
:100F2C00FA0087311B2787310030F9000030FA00B6
:100F3C0087312C2787310030F9000030FA008731D7
:100F4C002627F4010800220090018F018C018D01ED
:100F5C008E01073021009000DF308C00BF308D00F7
:100F6C00FF308E00FF308F00FF3023008F00FC30ED
:100F7C008E002F308D00073090003F308C00240005
:100F8C008F0190018D018C018E0121009717250096
:100F9C0090018C018D018E018F01FF3026008C0099
:100FAC00FF308D00FF308E00FF308F000730900037
:100FBC003F3027008C00F0308D00FF308E00FF306A
:100FCC008F000F303C00BD0024303D009E000C30E3
:100FDC003C00B900080087310E278731FC008731AF
:100FEC000F27FD00F001F101F201F301F4012000E3
:040FFC0087316A2FA0
:020000040001F9
:08000000FF3FFF3FFF3FFF3F00
:04000E00E4FFFFFF0D
:00000001FF
