:08000000803102288731FD2F39
:100EE6008C3021009E000800163021009900080071
:100EF6002B000E1770088F00710890000D14080063
:100F060088302B008E009001FA308F000D140800F7
:100F160090302A0095009601930102309400080053
:100F2600703021009B0080309C009A019D011C1BA3
:100F360008009A2F8731AC278731C030F200FF3086
:100F4600F3007308F1007208F00087317B278731C0
:100F5600A42F8731BE278731873193278731873181
:100F66007727873187317327873187318B278731F9
:100F7600873183270800220090018F018C018D01A3
:100F86008E01073021009000FF308C00FD308D006F
:100F9600FF308E00FF308F00FF3023008F00FC30C3
:100FA6008E003F308D00073090003F308C002400CB
:100FB6008F0190018D018C018E012100971725006C
:100FC60090018C018D018E018F01FF3026008C006F
:100FD600FF308D00FF308E00FF308F00073090000D
:100FE6003F3027008C00F0308D00FF308E00FF3040
:0A0FF6008F000800200087319D2FB6
:020000040001F9
:08000000FF3FFF3FFF3FFF3F00
:04000E00E4FFFFFF0D
:00000001FF
