:08000000803102288731F72F3F
:100E2E00290090140800833021009E00080016301F
:100E3E002100990008007B08F9007A08F8000800E4
:100E4E007B08F7007A08F600080029000F08FB005F
:100E5E000E08FA0008007B082000A3007A08A20002
:100E6E000800FA002000111E392F7A0823009A007C
:100E7E0008007A3021009B0080309C009A019D0171
:100E8E00080073302900910092018E018F0101300C
:100E9E0090000800FB007B08FA00FA0DFA0D2900FD
:100EAE0010087A0603397A0690001014080087316C
:100EBE00AF27873187314027873187311E2787310A
:100ECE0087311A27873187314827873187318E2717
:100EDE00080087315E2787317408873151278731A3
:100EEE0087311727873187312C2787317B082000E0
:100EFE00A1007A08A0005530873138278731343069
:100F0E00FC00F230890B892FFC0B892F772F0830CC
:100F1E0023009F0090309D0024309E00A0309B0047
:100F2E0001309C000030FA000030FB008731222790
:100F3E0087310030FA000030FB00873127278731D8
:100F4E000030FA000030FB0087313227F50108002F
:100F5E00220090018F018C018D018E01073021003E
:100F6E009000DF308C00BF308D00FF308E00FF30E0
:100F7E008F00FF3023008F00FC308E002F308D004D
:100F8E00073090003F308C0024008F0190018D01BE
:100F9E008C018E0121009717250090018C018D0187
:100FAE008E018F01FF3026008C00FF308D00FF3048
:100FBE008E00FF308F00073090003F3027008C00EE
:100FCE00F0308D00FF308E00FF308F000F303C0070
:100FDE00BD0024303D009E000C303C00B9000800DE
:100FEE00F001F101F201F301F401F5012000873166
:020FFE00702F52
:020000040001F9
:08000000FF3FFF3FFF3FFF3F00
:04000E00E4FFFFFE0E
:00000001FF
