:1000000080311528083402347E14803120007F08A6
:10001000F0002700931D102893112000E901EA0148
:1000200070082000FF007E100900803117289031F1
:1000300000208031FC00803102208031E9008031D5
:1000400003208031EA008C3084009B308500A03092
:1000500086000030870023309A3192228031183098
:1000600084009B30850020308600013087001930E5
:100070009A3192222100E001E101E201E301E40171
:10008000E501E601E701E801E901EA017E1020004F
:1000900096315C2E2100D3005E302000E100610823
:1000A0002100C60020005D08E2005C08E100DC0AD7
:1000B0000319DD0A61088400620885000008E30076
:1000C00063082100D90059080319382D2530590635
:1000D00003196D28590820002A2DC701C8012000E6
:1000E0005C0884005D08850012002E3A031DBA28C2
:1000F0002100481701302000DC070030DD3D2100E1
:10010000D401D50120005C0884005D08850000084A
:100110009A31E3228031031CC12820005C0884004E
:100120005D0885000008E100E2012100550820007B
:10013000A600210054082000A5000A30A7000030C6
:10014000A8009B3131238031200061082507E3009E
:100150006208263DE4006308D03E2100D400FF3051
:100160002000643D2100D50001302000DC07003074
:10017000DD3D82282100D401D5014816C12848154B
:10018000D72820005D08E2005C08E100DC0A0319C2
:10019000DD0A610884006208850000082100D9009A
:1001A000003A0319382D663A0319BF285228003047
:1001B00047052000E1000730210048052000E2004B
:1001C000610862040319D22C2100481EEB28063076
:1001D000D4000030D500460886008701403FD60095
:1001E000413FD700423FD80003302000E1006108C2
:1001F0002100C6075608F1005708F2005808F3001E
:100200000030F4000030F5000030F6009C31672427
:1002100080310318202921005608F1005708F20008
:100220005808F3009A31C522803171082100D600A8
:100230007208D7007308D8000330C7040030C80420
:100240002100CD01CE015808570456040319E029B6
:10025000D63086008701403F2000E100413FE200A8
:10026000423FE300433FE4000F30E436E30CE20C8E
:10027000E10C890B3529FF306105E500003062058E
:10028000E6006508823E2100CD00FF302000663D7B
:100290002100CE00FF30CD07FF30CE3D03302000DF
:1002A000A5000030A60021004E082000A800210073
:1002B0004D082000A7009B31312380312000260803
:1002C0002100CE00200025082100CD000A30F800D2
:1002D0000030F9004E08FB004D08FA009D31292539
:1002E000803179082100CE007808CD00CE1F7C290E
:1002F000FF30CD07FF30CE3D4D03FF3A8D31BC2599
:10030000803120003B082100CF0020003C08210064
:10031000D00020003D082100D10056082000AB008D
:10032000210057082000AC00210058082000AD0033
:1003300021004F082000AE00210050082000AF002F
:10034000210051082000B0009F314C27803120004F
:100350002B082100CF0020002C082100D000200015
:100360002D082100D1004F08F1005008F20051087B
:10037000F3000030F4008030F5003F30F6009C318F
:10038000672480310318C929FF302100CD07FF30D1
:10039000DF2921004F08F1005008F2005108F30056
:1003A0000030F4002030F5004130F6009C31672425
:1003B0008031031CE02901302100CD070030CE3D03
:1003C00021005508803A2000E10080306102031DC1
:1003D000EC290D30210054020318152A210054087D
:1003E0009431F724803120003B08C9003C08CA0042
:1003F0003D08CB00210056082000CC002100570802
:100400002000CD00210058082000CE0091319C2111
:100410008031200049082100D60020004A08210030
:10042000D70020004B082100D80021004E08803A58
:100430002000E10080306102031D212A0A302100E2
:100440004D0203184C2A210058085704560403197A
:10045000942A56082000C400210057082000C50037
:10046000210058082000C6009E313026803120002F
:100470004708460445044404031D942A21004E08FD
:10048000803A2000E10080306102031D4A2A0230D8
:1004900021004D02031C942A21004F08F10050084E
:1004A000F2005108F3007030F4008930F50040305C
:1004B000F6009C31672480310318602AF730612AE6
:1004C000F8302100CD07FF30CE3D4D088D31BC25E1
:1004D000803120003B082100CF0020003C08210093
:1004E000D00020003D082100D1005608F100570837
:1004F000F2005808F3004F08F4005008F5005108C6
:10050000F60090311520803174082100CC0073086A
:10051000CB007208CA007108C9000030D600003054
:10052000D7000030D800E92A210056082000C40076
:10053000210057082000C500210058082000C600EF
:100540009E3130268031200047082100CC00200059
:1005500046082100CB00200045082100CA002000E9
:1005600044082100C9004C082000A30021004B08CA
:100570002000A20021004A082000A1002100490813
:100580002000A0009B31D423803120002008D60019
:100590002108D7002208D800210056082000D900E1
:1005A000210057082000DA00210058082000DB0055
:1005B0009B314D238031200056082100D6002000B9
:1005C00057082100D700200058082100D800CD018D
:1005D000CE01D901D90A0A3059060319262B590828
:1005E0002000E100E201E135E20DE135E20D0030ED
:1005F00061078400A030623D8500003FE300013FB9
:10060000E400023FE500033FE600660821004C02DB
:10061000031D1A2B2000650821004B02031D1A2B15
:100620002000640821004A02031D1A2B20006308E1
:1006300021004902031C262B01302000E100610843
:100640002100D9070A305906031DEF2A0330470558
:100650002000E1000030210048052000E200610890
:1006600062040319412B2D30E1002100530886005C
:1006700087012000610881000130E100610821004C
:10068000D307FF302000E10061082100D907590A93
:100690000319A82B59082000E100E201E135E20D21
:1006A000E135E20D003061078400A030623D850035
:1006B000003FF100013FF200023FF300033FF4006E
:1006C00021004C08F8004B08F7004A08F6004908DA
:1006D000F5009D317B25803174082100D20073081C
:1006E000D1007208D0007108CF000030F400003053
:1006F000F3000030F2000A30F1005208F80051080F
:10070000F7005008F6004F08F5009C31A224803114
:1007100074082100D2007308D1007208D00071085B
:10072000CF004F08303E2000342B30302000E10055
:1007300021005308860087012000610881000130F4
:10074000E10061082100D307FF30CD07FF30CE3D27
:100750004E08803A2000E10080306102031DB32B77
:10076000013021004D020318952B21005508803AD5
:100770002000E10080306102031DC12B09302100FF
:100780005402031CC52B0830C72B2100540820003D
:10079000E10061082100D90059082000E100E201D0
:1007A000E11BE20361082100D4022000620821005D
:1007B000D53B59080319EB2B2E302000E100210016
:1007C0005308860087012000610881000130E100A4
:1007D00061082100D30759088D31BC2580312000E4
:1007E0003B082100C30020003C082100C400200079
:1007F0003D082100C50043082000AE002100440848
:100800002000AF00210045082000B000210056085C
:100810002000AB00210057082000AC002100580840
:100820002000AD009F314C27803120002B08C400F0
:100830002C08C5002D08C6009E31302680312000CE
:1008400047082100CC00200046082100CB002000F2
:1008500045082100CA00200044082100C900FF30DB
:100860002000E10061082100D907590A0319CD2CA5
:1008700059082000E100E201E135E20DE135E20D29
:10088000003061078400A030623D8500003FF10028
:10089000013FF200023FF300033FF40021004C0847
:1008A000F8004B08F7004A08F6004908F5009D31AA
:1008B0007B25803174082100D2007308D1007208B2
:1008C000D0007108CF000030F4000030F300003099
:1008D000F2000A30F1005208F8005108F700500801
:1008E000F6004F08F5009C31A224803174082100E5
:1008F000D2007308D1007208D0007108CF004F08F1
:10090000303E2000E10021005308860087012000CE
:10091000610881000130E10061082100D307590816
:100920002000E100E201E135E20DE135E20D0030A9
:1009300061078400A030623D8500003FF100013F67
:10094000F200023FF300033FF40021004C08F800DE
:100950004B08F7004A08F6004908F5009C31A2242C
:10096000803174082100CC007308CB007208CA00E3
:1009700071082E2C30302000E10021005308860041
:1009800087012000610881000130E1006108210039
:10099000D307FF30D407FF30D53D54085504031961
:1009A0005228BA2C210054085504031DE12C4C0890
:1009B0004B044A044904031DE12C0130D4070030E4
:1009C000D53D59082000E100E201E11BE203620885
:1009D000803AE30021005508803A20006302031D9D
:1009E000F52C21005408200061020318FF2C21007F
:1009F00054082000E10061082100D9001B2D2100CE
:100A000059082000E100E201E11BE2032100550842
:100A1000803A2000E3006208803A6302031D132D30
:100A200061082100540203181B2D21005908D4002D
:100A3000D501D41BD5030330210047052000E10078
:100A40000030210048052000E2006108620403191B
:100A500052282D30E1002100530886008701200034
:100A6000610881000130E10061082100D3075228AC
:100A700053088600870181010800FF34F134FF34F8
:100A8000FF34FF34FF34FF34FF34FF34FF34FF34CE
:100A9000FF34FF34FF34FF34FF34FF34E034FF34DD
:100AA000FF34FF34FF34FF34FF34FF34FF34FF34AE
:100AB000FF34FF34FF34FF34FF34FF34F034FF34AD
:100AC000FF34FF34FF34FF34FF34FF34FF34FF348E
:100AD000FF34FF34FF348F34FF34FF34FF34FF34EE
:100AE000FF34FF34FF34FF34FF34FF34FF34FF346E
:100AF000FF34FF34FF340734FF34FF34FD34FF3458
:100B0000FF34FF34FF34FF34FF34FF34FF34FF344D
:100B1000FF34FF34FF348734FF34FF34F934FF34BB
:100B2000FF34F934FF34FF34FF34FF34FF34FF3433
:100B3000FF34FF34CF34FF34FF34FF34F034F83463
:100B40007F34F034FF34CF34C334FE340F34FF34F9
:100B50008334FF340334E734FF34FF34C034F034DB
:100B60001F34E03467348F348334F83407349F34CF
:100B70000334CE340334C734FF34FF348034F834C4
:100B80000334C434473487348334F03407341F3497
:100B90000334C8346134C334FF34FF348034003448
:100BA0000034003440340F348134E03400340034F5
:100BB0000034003400340734FF34FF348034003410
:100BC0000034003460340F348134E43400340034B1
:100BD0000034003400340734FF34FF3480340034F0
:100BE0006034003460340F348134E4340034003431
:100BF0000034003400340734FF34FF34FC34013453
:100C0000F8343834C0341F34E134E734003441342C
:100C10008134203400340F34FF34FF34FF34FE3489
:100C20003F34FE3407349F340334E334DF341F345D
:100C3000E734FF34FF34FF34FF34FF34FF34FE3435
:100C40001F34FF340F348F348334E734FE340F34D1
:100C5000FF34FF34FF34FF34FF34FF34FF34FF34FC
:100C60003F34FF340F348F34C734E734FF340F344C
:100C7000FF34FF34FF34FF34FF34FF34FF34FF34DC
:100C8000FF34FF34FF34FF34FF34E734FF34FF34E4
:100C9000FF34FF34FF34FF34FF34FF34FF34FF34BC
:100CA000FF34FF34FF34FF34FF34FF34FF34FF34AC
:100CB000FF34FF34FF34FF34FF34FF34FF34FF349C
:100CC000FF34FF34FF34FF34FF34FF34FF34FF348C
:100CD000FF34FF34FF34FF34FF34FF34FF34FF347C
:100CE000FF34FF34FF34FF34FF34FF34FF34FF346C
:100CF000FF34FF34FF34FF34FF34FF34FF34FF345C
:100D0000FF34FF34FF34FF34FF34FF34FF34FF344B
:100D1000FF34FF34FF34FF34FF34FF34FF34FF343B
:100D2000FF34FF34FF34FF34FF34FF34FF34FF342B
:100D3000FF34FF34FF34FF34FF34FF34FF34FF341B
:100D4000FF34FF34FF34FF34FF34FF34FF34FF340B
:100D5000FF34FF34FF34FF34FF34FF34FF34FF34FB
:100D6000FF34FF34FF34FF34FF34FF34FF34FF34EB
:100D7000FF34FF34FF34FF34FF34FF34FF34FF34DB
:100D8000FF34FF34FF34EF34FF34FF34FF34FF34DB
:100D9000FF34FF34FF34FF34FF34FF34FF34FF34BB
:100DA000FF34FF34FF34C734F734FF34F334FF34F7
:100DB000DF34FF34FF34FF34FF34FF34FF34FF34BB
:100DC000FF34FF34FF34C334E734FF34F134FF34ED
:100DD0009C347F34FF34FF34FF34FF34FF34FF345E
:100DE000F934FF34FF34C334C734FF34F134FF34F3
:100DF0001C343F34FF34FF34FF34FF34FF34FF34FE
:100E0000F834FF343F34C734C734FF34FF34FF3481
:100E10001E347F34FF34FF34FF34FF34FF34FF349B
:100E2000FD34FE343F348734C734FF34F934FF34A3
:100E30001F34FF34CF34FF34FF34FF34FF34FF342A
:100E4000FF34FC341F340734C734EF34F034F93442
:100E50001E347F348734FF34FF34FF34FF34FF34D3
:100E6000FC34F8341E340334C734EF34E034F13446
:100E70001E343F348334FF34FF34FF34FF34FF34F7
:100E8000F834F8341E3400344734CF34C034F134ED
:100E90001E343F340134FF34FF34FF34FF347034E8
:100EA00000340034003400344734C034003401349A
:100EB00000343E340134FF34FF34FF34FF347034E7
:100EC0000034003400340034C734C03400340134FA
:100ED00000343E340134FF34FF34FF34FE346034D8
:100EE0000034003400340F34CF34C03400340334C1
:100EF00000347E340334FF34FF34FF34FE34703466
:100F00002634003400343F34CF34F0340C3407340A
:100F10008834FC340734FF34FF34FF34FE340034AB
:100F2000FF34E0341F34C734FF34FF34FF34C3349C
:100F3000FF34FC347F34FF34FF34FF34FE3400349C
:100F4000FF34E0343F34C334FF34FF34FF34C13462
:100F5000FF34FC347F34FF34FF34FF34FF3401347A
:100F6000FF34F0347F34E734FF34FF34FF34C134CE
:100F7000FF34FC347F34FF34FF34FF34FF348734D4
:100F8000FF34FD34FF34FF34FF34FF34FF34FF34CB
:100F9000FF34FC34FF34FF34FF34FF34FF34873434
:100FA000FF34FF34FF34FF34FF34FF34FF34FF34A9
:100FB000FF34FE34FF34FF34FF34FF34FF34833416
:100FC000FF34FF34FF34FF34FF34FF34FF34FF3489
:100FD000FF34FF34FF34FF34FF34FF34FF348334F5
:100FE000FF34FF34FF34FF34FF34FF34FF34FF3469
:100FF000FF34FF34FF34FF34FF34FF34FF34FF3459
:10100000FF34FF34FF34FF34FF34FF34FF34FF3448
:10101000FF34FF34FF34FF34FF34FF34FF34FF3438
:10102000FF34FF34FF34FF34FF34FF34FF34FF3428
:10103000FF34FF34FF34FF34FF34FF34FF34FF3418
:10104000FF34FF34FF34FF34FF34FF34FF34FF3408
:10105000FF34FF34FF34FF34FF34FF34FF34FF34F8
:10106000FF34FF34FF34FF34FF34FF34FF34FF34E8
:10107000FF34FF34FF34FF34FF34FF34FF34FF34D8
:10108000FF34FF34FF34FF34FF34FF34FF34FF34C8
:10109000FF34FF34FF34FF34FF34FF34FF34FF34B8
:1010A000FF34FF34F834E334FF34FF34FF34FF34CB
:1010B000FF34FF34FF34FF34FF34FF34FF34FF3498
:1010C000FF34FF34F834E334E134FC34FF34FF34CC
:1010D000FF34FF34FF34FF34FF34FF34FF34FF3478
:1010E000FF34FF34FC346734C034F034FF34FF3451
:1010F000FF34FF34FF34FF34FF34FF34FF34FF3458
:10110000FF34FF34FC344734C034E034FF34FF3460
:10111000FF34FF34FF34FF34FF34FF34FF34FF3437
:10112000FF34FF34FC344734C4347034FF34FF34AC
:10113000FF34FF34FF34FF34FF34FF34FF34FF3417
:10114000FF34FF34FE344F3484347834FF34FF34BA
:10115000FF34FF34FF34FF34FF34FF34FF34FF34F7
:10116000FF34FF34FE340F34C4347834FF34FF349A
:10117000FF34FF34FF34FF34FF34FF34FF34FF34D7
:10118000FF34FF34FE340F34C034F834FF34FF34FE
:10119000FF34FF34FF34FF34FF34FF34FF34FF34B7
:1011A000FF34FF34FF341F34C0349834FF34FF342D
:1011B000FF34FF34FF34FF34FF34FF34FF34FF3497
:1011C000FF34FF34FF341F34E0349834FF34FF34ED
:1011D000FF34FF34FF34FF34FF34FF34FF34FF3477
:1011E000FF34FF34FF34BF34F334FD34FF34FF34B5
:1011F000FF34FF34FF34FF34FF34FF34FF34FF3457
:10120000FF34FF34FF34FF34FF34FF34FF34FF3446
:10121000FF34FF34FF34FF34FF34FF34FF34FF3436
:10122000FF34FF34FF34FF34FF34FF34FF34FF3426
:10123000FF34FF34FF34FF34FF34FF34FF34FF3416
:10124000FF34FF34FF34FF34FF34FF34FF34FF3406
:10125000FF34FF34FF34FF34FF34FF34FF34FF34F6
:10126000FF34FF34FF34FF34FF34FF34FF34FF34E6
:10127000FF34FF34FF34FF34FF34433475347234A9
:10128000723465346E34743420342034203469343C
:101290006E3420346D3441343A340034FF34FF343A
:1012A000FF34FF34FF34FF34FF34FF34FF34FF34A6
:1012B000FF34FF34FF34FF34FF34FF34FF34FF3496
:1012C000FF34FF34FF34FF34FF34FF34FF34FF3486
:1012D000FF34FF34FF34FF34FF34FF34FF34FF3476
:1012E000FF34FF34FF34FF34FF34FF34FF34FF3466
:1012F000FF34FF34FF34FF34FF34FF34FF34FF3456
:10130000FF34FF34FF34FF34FF34FF34FF34FF3445
:10131000FF34FF34FF34FF34FF34FF34FF34FF3435
:10132000FF34FF34FF34FF34FF34FF34FF34FF3425
:10133000FF34FF34FF34FF34FF34FF34FF34FF3415
:10134000FF34FF34FF34FF34FF34FF34FF34FF3405
:10135000FF34FF34FF34FF34FF34FF34FF34FF34F5
:10136000FF34FF34FF34FF34FF34FF34FF34F934EB
:1013700000345F34FF34FF34FF34FF34FF34FF3474
:10138000FF34FF34FF34FF34FF34FF34FE340034C5
:10139000003400347F34FF34FF34FF34FF34FF3433
:1013A000FF34FF34FF34FF34FF34FF34F0340034B3
:1013B000003400340F34FF34FF34FF34FF34FF3483
:1013C000FF34FF34FF34FF34FF34FF348034003403
:1013D000003400340134FF34FF34FF34FF34FF3471
:1013E000FF34FF34FF34FF34FF34FE340034003464
:1013F0000034003400347F34FF34FF34FF34FF34D2
:10140000FF34FF34FF34FF34FF34F8340034013448
:10141000B534003400341F34FF34FF34FF34FF345C
:10142000FF34FF34FF34FF34FF34E03400345F34E2
:10143000FF34F83400340F34FF34FF34FF34FF340A
:10144000FF34FF34FF34FF34FF34E0340134FF3421
:10145000FF34FF3400340334FF34FF34FF34FF34EF
:10146000FF34FF34FF34FF34FF34F0340F34FF34E3
:10147000A734FF34E0340134FF34FF34FF34FF3449
:10148000FF34FF34FF34FF34F934FE343F34F83492
:1014900000345F34F0340134FF34FF34FF34FF3460
:1014A000FF34FF34FF34FF34E0347F34FF34C03482
:1014B00000340734F8340034FF34FF34FF34FF3491
:1014C000FF34FF34FF34FF3480341F34FF340034E2
:1014D00000340334FC3400347F34FF34FF34FF34F1
:1014E000FF34FF34FF34FF3400340734FC3400345D
:1014F00000340034FE3400347F34FF34FF34FF34D2
:10150000FF34FF34FF34FF34C0340134F03400348E
:1015100078340034FE3400347F34FF34FF34FF3439
:10152000FF34FF34FF34CF34E0340034403401342E
:10153000FE340034FF3400347F34FF34FF34FF3492
:10154000FF34FF34FF348134FC340034003407347A
:10155000FE340034FE3400347F34FF34FF34FF3473
:10156000FF34FF34FC3400347F34003400341F3443
:10157000FC340034FE3400347F34FF34FF34FF3455
:10158000FF34FF34F83400343F34C03400347F3447
:10159000F0340034FE3400347F34FF34FF34FF3441
:1015A000FF34FF34E0340034FF34E0340134FF34DE
:1015B000C0340334FC340034FF34FF34FF34FF34D0
:1015C000FF34FF3400340334FF34FC340734DE349A
:1015D00000340734F8340034FF34FF34FF34FF3470
:1015E000FF34FC3400340F34FC347F349F34043433
:1015F00000341F34F0340134FF34FF34FF34FF343F
:10160000FF34F83400343F34F0341F34FC340034F9
:1016100000347F34C0340334FF34FF34FF34FF34EC
:10162000FF34C0340034FF34C0340734F83400349D
:101630000134FF3480340734FF34FF34FF34FF3487
:10164000FF3400340734FE3400340734FC340034F3
:101650000734FE3400340F34FF34FF34FF34FF34DA
:10166000FE3400340F34FC3400341F34FF340034B3
:101670003F34F03400343F34FF34FF34FF34FF3460
:10168000F83400343F34F83400347F34FF34C0344D
:101690007F34C0340034FF34FF34FF34FF34FF3470
:1016A000FC3400340F34FC3400343F34C734F93494
:1016B000FF3400340334FF34FF34FF34FF34FF348D
:1016C000FF3480340334FF3400340E340034FF34EC
:1016D000FC3400340F34FF34FF34FF34FF34FF3464
:1016E000FF34C0340334FF34E034003400347F343A
:1016F000F03400343F34FF34FF34FF34FF34FF3420
:10170000FF34F0340734FF34F034003400347F34D5
:10171000F0340034FF34FF34FF34FF34FF34FF343F
:10172000FF34E0341F34FF34FE3400340334FF341C
:10173000F0340334FF34FF34FF34FF34FF34FF341C
:10174000FF3480347F34C134FF3480340734FE34B6
:10175000FE340F34FF34FF34FF34FF34FF34FF34E2
:10176000FE340334FF3400347F34C0343F34F0346B
:101770007F34BF34FF34FF34FF34FF34FF34FF3491
:10178000F0340734FC3400341F34F134FF34C034F7
:101790001F34FF34FF34FF34FF34FF34FF34FF3491
:1017A000E0341F34FC3400341F34FF34FF34003481
:1017B0000F34FF34FF34FF34FF34FF34FF34FF3481
:1017C00000347F34FF3480347F34FF34FC34003401
:1017D0000F34FF34FF34FF34FF34FF34FF34FC3464
:1017E0000334FF34FF34C134FF34FF34F0340034A9
:1017F0003F34FF34FF34FF34FF34FF34FF34F83418
:101800000734FF34FF34FF34FC343F34C034003439
:10181000FF34FF34FF34FF34FF34FF34FF34E0344F
:101820001F34FF34FF34FF34F0340F3400340734F6
:10183000FF34FF34FF34FF34FF34FF34FF34E0342F
:10184000FF34FF34FF34FF34C034003400341F341D
:10185000FF34FF34FF34FF34FF34FF34FF34FB34F4
:10186000FF34FF34FF34FF340034003400347F345D
:10187000FF34FF34FF34FF34FF34FF34FF34FF34D0
:10188000FF34FF34FF34FC34003400340134FF34BF
:10189000FF34FF34FF34FF34FF34FF34FF34FF34B0
:1018A000FF34FF34FF34F0340E3400340734FF3497
:1018B000FF34FF34FF34FF34FF34FF34FF34FF3490
:1018C000FF34FF34FF34C0343F3480341F34FF34DE
:1018D000FF34FF34FF34FF34FF34FF34FF34FF3470
:1018E000FF34FF34FF340034FF34E0347F34FF34FE
:1018F000FF34FF34FF34FF34FF34FF34FF34FF3450
:10190000FF34FF34FC340334FF34F934FF34FF3444
:10191000FF34FF34FF34FF34FF34FF34FF34FF342F
:10192000FF34FF34F0340F34FF34FF34FF34FF341E
:10193000FF34FF34FF34FF34FF34FF34FF34FF340F
:10194000FF34FF34C0343F34FF34FF34FF34FF34FE
:10195000FF34FF34FF34FF34FF34FF34FF34FF34EF
:10196000FF34FF340034FF34FF34FF34FF34FF34DE
:10197000FF34FF34FF34FF34FF34FF34FF34FF34CF
:10198000FF34FF340334FF34FF34FF34FF34FF34BB
:10199000FF34FF34FF34FF34FF34FF34FF34FF34AF
:1019A000FF34FF349F34FF34FF34FF34FF34FF34FF
:1019B000FF34FF34FF34FF34FF34FF34FF34FF348F
:1019C000FF34FF34FF34FF34FF34FF34FF34FF347F
:1019D000FF34FF34FF34FF34FF34FF34FF34FF346F
:1019E000FF34FF34FF34FF34FF34FF34FF34FF345F
:1019F000FF34FF34FF34FF34FF34FF34FF34FF344F
:101A0000FF34FF34FF34FF34FF34FF34FF34FF343E
:101A1000FF34FF34FF34FF34FF34FF34FF34FF342E
:101A2000FF34FF34FF34FF34FF34FF34FF34FF341E
:101A3000FF34FF34FF34FF34FF34FF34FF34FF340E
:101A4000FF34FF34FF34FF34FF34FF34FF34FF34FE
:101A5000FF34FF34FF34FF34FF34FF34FF34FF34EE
:101A6000FF34FF34FF34FF34FF34FF34FF34FF34DE
:101A7000FF34FF34FF34FF34FF34FF34FF34FF34CE
:101A8000FF34FF34FF34FF34FF34FF34FF34FF34BE
:101A9000FF34FF34FF34FF34FF34FF342100971349
:101AA000F0308F00F03024008F0023008F010800F9
:101AB00074080319602D730872047104031D712DDD
:101AC0000030F1000030F2000030F3000800013077
:101AD000F6007608F4070130F336F20CF10C890BAE
:101AE0006C2DFE30730503198A2D672D0130F60029
:101AF0007608F4070130F107003003180130F207CF
:101B0000003003180130F3070130F336F20CF10C0A
:101B1000890B852DFF3073050319972D762D013024
:101B2000F4020130F135F20DF30D890B922DF21B09
:101B30009D2D0230740203188F2D7418A52DFF30CF
:101B4000F1057F30F205FF30F3050310F40C740843
:101B5000F600F701F8011030F635F70DF80D890B96
:101B6000AC2D7608F1047708F2047808F3047508C0
:101B700003190800F31708002000C300C31FE12E5B
:101B8000C309C30A4308803A123E031C652E0A307B
:101B9000F8000030F9004308F300F401F31BF403EC
:101BA0006430F1000030F2009C31E4248D31720881
:101BB000FB007108FA009D3129258D317808093E16
:101BC0002000A5000030793DA6000330A7000030BA
:101BD000A8009B3131238D3120002608850025087F
:101BE00084004F308407A030853D003FAB00013FAB
:101BF000AC00023FAD006430F8000030F90043084B
:101C0000FA00FB01FA1BFB039D3129258D31780871
:101C1000123E2000A5000030793DA6000330A70049
:101C20000030A8009B3131238D312000260885002B
:101C3000250884004F308407A030853D003FAE006A
:101C4000013FAF00023FB0009F314C278D31200093
:101C50002B08C0002C08C1002D08C2004308F30067
:101C6000F401F31BF4030A30F1000030F2009C3160
:101C7000E4248D3172082000A6007108A50003300D
:101C8000A7000030A8009B3131238D3120002608A9
:101C90008500250884004F308407A030853D003F33
:101CA000AB00013FAC00023FAD004008AE00410870
:101CB000AF004208B0009F314C2720002B08BB002A
:101CC0002C08BC002D08BD0008004308803A753E72
:101CD000031CC42E4308F300F401F31BF4030A3081
:101CE000F1000030F2009C31E4248D3172082000B4
:101CF000A6007108A5000330A7000030A8009B31A2
:101D000031238D31200026088500250884004F30BE
:101D10008407A030853D003FAB00013FAC00023F8F
:101D2000AD000A30F8000030F9004308FA00FB016A
:101D3000FA1BFB039D3129258D317808093E2000CF
:101D4000A5000030793DA6000330A7000030A800B0
:101D50009B3131238D312000260885002508840021
:101D60004F308407A030853D003FAE00013FAF00FB
:101D7000023FB0009F314C2720002B08BB002C08ED
:101D8000BC002D08BD0008004308BE00BF013E088E
:101D9000A5003F08A6000330A7000030A8009B3133
:101DA0003123200026088500250884004F30840751
:101DB000A030853D003FBB00013FBC00023FBD009D
:101DC00008004308803A123E031C842F0A30F800B2
:101DD0000030F9004308F300F401F31BF40364300E
:101DE000F1000030F2009C31E4248D317208FB00D8
:101DF0007108FA009D3129258D317808093E2000AF
:101E0000A5000030793DA6000330A7000030A800EF
:101E10009B3131238D312000260885002508840060
:101E200028308407A030853D003FAB00013FAC0067
:101E3000023FAD006430F8000030F9004308FA00BA
:101E4000FB01FA1BFB039D3129258D317808123ED9
:101E50002000A5000030793DA6000330A700003027
:101E6000A8009B3131238D312000260885002508EC
:101E7000840028308407A030853D003FAE00013F3C
:101E8000AF00023FB0009F314C278D3120002B085E
:101E9000C0002C08C1002D08C2004308F300F40163
:101EA000F31BF4030A30F1000030F2009C31E4240B
:101EB0008D3172082000A6007108A5000330A7002C
:101EC0000030A8009B3131238D3120002608850089
:101ED0002508840028308407A030853D003FAB00F2
:101EE000013FAC00023FAD004008AE004108AF002A
:101EF0004208B0009F314C2720002B08BB002C0863
:101F0000BC002D08BD0008004308803A753E031C44
:101F1000E32F4308F300F401F31BF4030A30F1004C
:101F20000030F2009C31E4248D3172082000A600BC
:101F30007108A5000330A7000030A8009B313123B1
:101F40008D3120002608850025088400283084076C
:101F5000A030853D003FAB00013FAC00023FAD002B
:101F60000A30F8000030F9004308FA00FB01FA1BC0
:101F7000FB039D3129258D317808093E2000A500FD
:101F80000030793DA6000330A7000030A8009B3147
:101F900031238D3120002608850025088400283053
:101FA0008407A030853D003FAE00013FAF00023FF7
:101FB000B0009F314C2720002B08BB002C08BC0030
:101FC0002D08BD0008004308BE00BF013E08A50063
:101FD0003F08A6000330A7000030A8009B31312342
:101FE0002000260885002508840028308407A030BA
:101FF000853D003FBB00013FBC00023FBD00080023
:102000006E347908F1007A08F200F3018E30200076
:10201000A0002008F400F5018D3158257108F90061
:102020007208FA007308FB0008007108F7007208D4
:10203000F8007308F9000310780D790DFA007A089A
:102040002000A5002508031D2E280030F4000030D4
:10205000F3000030F2000030F10008007408F700CF
:102060007508F8007608F9000310780D790DFA006C
:102070007A08A4002408031D46280030F40000302C
:10208000F3000030F2000030F1000800F217FF30DA
:10209000F105FF30F2050030F305F517FF30F405C8
:1020A000FF30F5050030F6050030A3000030A20037
:1020B0000030A1000030A0007F30A5029830240736
:1020C000F7007708A5021830F7007708A400013060
:1020D000A035A10DA20DA30D890B68287608730207
:1020E000031D782875087202031D78287408710290
:1020F000031C81287408F1027508F23B7608F33B53
:1021000020140130F135F20DF30D890B82280130D6
:10211000A402031D6728A51FA9282508803A973E19
:1021200003189B280030F4000030F3000030F20068
:102130000030F10008000130A336A20CA10CA00C65
:10214000890B9C280130F7007708A5070319C228DE
:102150009B2818302502031CBF280030F4000030F3
:10216000F3000030F2000030F10008000130A0352B
:10217000A10DA20DA30D890BB7280130A5022508DA
:10218000031DB6282308F4002208F3002108F200FA
:102190002008F1000800F70140307702031808001A
:1021A0002030770203183329F80108307802031829
:1021B0009629770880389A319822903178088038AB
:1021C0009A319822903177082000A000A101A00E3A
:1021D000A10EF030A10520080F39A104F030A005B0
:1021E0007808A200A301A235A30D20082207A400AD
:1021F0002108233DA5007508240784007608253DA5
:10220000850000089A319F22903177082000A000B5
:10221000A101A00EA10EF030A10520080F39A104E4
:10222000F030A0057808A200A301A235A30D200874
:102230002207A4002108233DA5002408013EA60092
:102240000030253DA7007508260784007608273D45
:10225000850000089A319F22903101302000A000B3
:102260002008F807D528F8010830780203189629C5
:102270007708E03E80389A31982290317808883883
:102280009A319822903177082000A000A101A00E79
:10229000A10EF030A10520080F39A104F030A005EF
:1022A0007808A200A301A235A30D20082207A400EC
:1022B0002108233DA5007508240784007608253DE4
:1022C000850000089A319F22903177082000A000F5
:1022D000A101A00EA10EF030A10520080F39A10424
:1022E000F030A0057808A200A301A235A30D2008B4
:1022F0002207A4002108233DA5002408013EA600D2
:102300000030253DA7007508260784007608273D84
:10231000850000089A319F22903101302000A000F2
:102320002008F80708307802031C38290130200003
:10233000A0002008F707CC2820004908CF004A0851
:10234000D0004B08D1000310500D510DD20052089F
:10235000D5004C08CF004D08D0004E08D100031026
:10236000500D510DD2005208D40055080319C4294C
:10237000540855020318CB295503FF3A5407CF00E0
:1023800019304F02031CCB294C08C9004D08CA0064
:102390004E08CB00080054080319080055085402E1
:1023A0000318DA295403FF3A5507CF0019304F02BA
:1023B000031808000630CF004F08D300CB1BD317FB
:1023C000CE1B5317CA17FF30C905FF30CA050030AE
:1023D000CB05CD17FF30CC05FF30CD050030CE0545
:1023E000540855020318162A0130CC35CD0DCE0DF8
:1023F000890BF5290130D402540855060319112A16
:102400000130D302530807390319112AF429013086
:10241000CB36CA0CC90C890B082A0130CF004F08F3
:10242000D5075508540603193B2A072A55085402B4
:1024300003183B2A0130C935CA0DCB0D890B1B2A65
:102440000130D502540855060319372A0130D3024A
:10245000530807390319372A1A2A0130CE36CD0C12
:10246000CC0C890B2E2A0130CF004F08D407550819
:102470005406031D2D2AD31F4D2AFF30C906FF30F5
:10248000CA06FF30CB060130C907003003180130FF
:10249000CA07003003180130CB07531F5F2AFF30F3
:1024A000CC06FF30CD06FF30CE060130CC07003021
:1024B00003180130CD07003003180130CE07D301D7
:1024C0004908CC074A08CD3D4B08CE3DCE1F7A2A9D
:1024D000FF30CC06FF30CD06FF30CE060130CC07F2
:1024E000003003180130CD07003003180130CE074B
:1024F000D301D30A4C08F1004D08F2004E08F30056
:102500005508CF004F08F4005308D0005008F500DC
:102510008D31582571082000C9007208CA0073085F
:10252000CB000800713086008701403F2000A000EA
:10253000413FA100423FA200433FA3000310220DF0
:10254000230DA4002408AD002D08031DB02A00307F
:10255000F4000030F3000030F2000030F100080019
:10256000743086008701403FA000413FA100423FF8
:10257000A200433FA3000310220D230DA400240852
:10258000AC002C08031DCD2A0030F4000030F3000D
:102590000030F2000030F100080071308600870141
:1025A00000308104413100308104413180308104A8
:1025B000413100308104713086008701FF30810590
:1025C0004131FF3081054131FF308105413100301B
:1025D000810574308600870100308104413100306C
:1025E00081044131803081044131003081047430F4
:1025F00086008701FF3081054131FF30810541317F
:10260000FF3081054131003081050030AB000030E2
:10261000AA000030A9000030A8007F30AD02A03031
:102620002C07A0002008AD022030A0002008AC003C
:102630000130A835A90DAA0DAB0D890B192B7430EB
:1026400086008701403FA000413FA100423FA20019
:10265000433FA300713086008701403FA400413F03
:10266000A500423FA600433FA70023082702031D01
:10267000432B22082602031D432B21082502031D9C
:10268000432B20082402031C602B74308600870132
:10269000403FA000413FA100423FA200433FA300B2
:1026A0007130860087012008810241312108813B79
:1026B00041312208813B41312308813B7D3128147F
:1026C00071308600870181354131810D4131810DA5
:1026D0004131810D7D310130AC02031D182BAD1F3E
:1026E0008D2B2D08803A9F3E03187F2B0030F4007D
:1026F0000030F3000030F2000030F100080001303B
:10270000AB36AA0CA90CA80C890B802B0130A000B9
:102710002008AD070319A62B7F2B20302D02031CA8
:10272000A32B0030F4000030F3000030F200003042
:10273000F10008000130A835A90DAA0DAB0D890BD9
:102740009B2B0130AD022D08031D9A2B2B08F400A2
:102750002A08F3002908F2002808F10008002200E6
:102760000F108F140F158F1520000F1AC82B033070
:10277000F2000830F1007730890BBC2BF10BBC2B39
:10278000F20BBC2B000020000F1EC32B31300800C1
:102790008F1ADB2B0330F2000830F1007730890B01
:1027A000CF2BF10BCF2BF20BCF2B000020008F1E75
:1027B000D62B323008000F1BEE2B0330F20008300E
:1027C000F1007730890BE22BF10BE22BF20BE22BBD
:1027D000000020000F1FE92B333008008F1B012C55
:1027E0000330F2000830F1007730890BF52BF10B44
:1027F000F52BF20BF52B000020008F1FFC2B413036
:10280000080022000F148F100F158F1520000F1ACB
:102810001A2C0330F2000830F1007730890B0E2CAF
:10282000F10B0E2CF20B0E2C000020000F1E152CAD
:10283000343008008F1A2D2C0330F2000830F100DC
:102840007730890B212CF10B212CF20B212C00006D
:1028500020008F1E282C353008000F1B402C033021
:10286000F2000830F1007730890B342CF10B342C56
:10287000F20B342C000020000F1F3B2C36300800D8
:102880008F1B532C0330F2000830F1007730890B96
:10289000472CF10B472CF20B472C000020008F1F18
:1028A0004E2C4230080022000F148F140F118F1588
:1028B00020000F1A6C2C0330F2000830F100773042
:1028C000890B602CF10B602CF20B602C00002000B7
:1028D0000F1E672C373008008F1A7F2C0330F20050
:1028E0000830F1007730890B732CF10B732CF20B4D
:1028F000732C000020008F1E7A2C383008000F1B2C
:10290000922C0330F2000830F1007730890B862CCE
:10291000F10B862CF20B862C000020000F1F8D2C53
:10292000393008008F1BA52C0330F2000830F1006D
:102930007730890B992CF10B992CF20B992C000014
:1029400020008F1FA02C4330080022000F148F148A
:102950000F158F1120000F1ABE2C0330F200083023
:10296000F1007730890BB22CF10BB22CF20BB22CA8
:10297000000020000F1EB92C2A3008008F1AD12C1D
:102980000330F2000830F1007730890BC52CF10BD1
:10299000C52CF20BC52C000020008F1ECC2C303033
:1029A00008000F1BE42C0330F2000830F1007730F0
:1029B000890BD82CF10BD82CF20BD82C000020005E
:1029C0000F1FDF2C233008008F1B08000330F2009C
:1029D0000830F1007730890BEB2CF10BEB2CF20B6C
:1029E000EB2C000020008F1FF22C44300800200048
:1029F000C8006E304802031CB72D0A30F8000030C2
:102A0000F9004808BE00BF013E08F3003F08F4008B
:102A10006430F1000030F2009C31E42494317208FB
:102A2000FB007108FA009D31292594317808093E90
:102A30002000A5000030793DA6000330A70000303B
:102A4000A8009B31312394312000260885002508F9
:102A500084004F308407A030853D003FAB00013F2C
:102A6000AC00023FAD006430F8000030F9004808C7
:102A7000C000C1014008FA004108FB009D31292532
:102A800094317808123E2000A5000030793DA60060
:102A90000330A7000030A8009B313123943120007F
:102AA00026088500250884004F308407A030853D26
:102AB000003FAE00013FAF00023FB0009F314C2706
:102AC000943120002B08C5002C08C6002D08C70033
:102AD0004808BE00BF013E08F3003F08F4000A307A
:102AE000F1000030F2009C31E4249431720820009F
:102AF000A6007108A5000330A7000030A8009B3194
:102B000031239431200026088500250884004F30A9
:102B10008407A030853D003FAB00013FAC00023F81
:102B2000AD004508AE004608AF004708B0009F3131
:102B30004C27943120002B08C2002C08C3002D081C
:102B4000C4000030AB000030AC003F30AD004208A4
:102B5000AE004308AF004408B0009F314C2720006E
:102B60002B08BB002C08BC002D08BD0008000B3052
:102B70004802031C2F2E4808BE00BF013E08F30088
:102B80003F08F4000A30F1000030F2009C31E424E8
:102B9000943172082000A6007108A5000330A70038
:102BA0000030A8009B313123943120002608850095
:102BB000250884004F308407A030853D003FAB00DE
:102BC000013FAC00023FAD000A30F8000030F900D0
:102BD0004808C000C1014008FA004108FB009D31CF
:102BE000292594317808093E2000A5000030793D60
:102BF000A6000330A7000030A8009B313123943198
:102C0000200026088500250884004F308407A03066
:102C1000853D003FAE00013FAF00023FB0009F3155
:102C20004C27943120002B08C5002C08C6002D0825
:102C3000C7000030AB000030AC003F30AD004508AD
:102C4000AE004608AF004708B0009F314C27200077
:102C50002B08BB002C08BC002D08BD00080000306C
:102C6000AB000030AC003F30AD004808BE00BF01F3
:102C70003E08A5003F08A6000330A7000030A800CA
:102C80009B313123943120002608850025088400DB
:102C90004F308407A030853D003FAE00013FAF00BC
:102CA000023FB0009F314C2720002B08BB002C08AE
:102CB000BC002D08BD0008009A31A62296319A3139
:102CC000B52296319A31BD229631BF3021008E0057
:102CD000FC3023008E0024008E0125008E01FF3081
:102CE00026008E00FF3027008E000B3021008C0064
:102CF00023008C0127008C019A31CD2296312100CE
:102D00008D0123008D0125008D0126008D018D315F
:102D10004E2596319D31CE2596319B31AF2396318C
:102D20009B31FF2396313D30F5008530F600903120
:102D3000CB20963115302000E8004B30E700BE3044
:102D4000890BA02EE70BA02EE80BA02E00009B31D4
:102D5000FF2396319A31D622963120000C0C01398E
:102D6000E700E80167082100E5002000680821006D
:102D7000E60000302000AB00A030AC003B30AD00DE
:102D800005309A31FF2296317208FA007108F90075
:102D900090310120963179082000AE007A08AF000A
:102DA0007B08B0009F314C27963120002B08210072
:102DB000E00020002C082100E10020002D08210067
:102DC000E20020302000E70067082100B50048300D
:102DD0002000C900E130CA00BD30CB0021006008EE
:102DE0002000CC00210061082000CD0021006208F5
:102DF0002000CE0091319C2196312000490821000D
:102E0000DA0020004A082100DB0020004B082100E6
:102E1000DC0087302000DC00A030DD0021005A08F3
:102E20002000DE0021005B082000DF0021005C089C
:102E30002000E000B23080314A2096313D30F5006C
:102E40008930F60003309C3133249631B230F500DE
:102E50000030F60004309C313324963120008C1968
:102E6000352F0830E9000230EA008C187A2F343010
:102E70002000E700F130890B3B2FE70B3B2F00329E
:102E800020000C0C0139E700E80167082100E70089
:102E9000200068082100E80020000C080139E70044
:102EA000E8012100680820006806031D5B2F21004F
:102EB0006708200067060319712FFF30E907FF300C
:102EC000EA3D6A08803AE700823067020830031959
:102ED00069020318752F08302000E9000230EA006B
:102EE000752F0130E9070030EA3D21006808E6004F
:102EF0006708E50020302000E70067082100B500E2
:102F000000302000AB00A030AC003B30AD006A08C0
:102F1000FA006908F9009B316B239631790820008B
:102F2000AE007A08AF007B08B0009F314C27963185
:102F300020002B082100DD0020002C082100DE00ED
:102F400020002D082100DF0087302000DC00A030A9
:102F5000DD0021005D082000DE0021005E08200069
:102F6000DF0021005F082000E000B23080314A20FD
:102F700096317630F500A030F60001309C313324D4
:102F80009631B230F5000030F60002309C31332427
:102F900096319A31F12296312000E700670821002E
:102FA000A10020006A08E8006908E7000630E7355C
:102FB000E80D890BD72F6708F1006808F2009A31F5
:102FC000AD229631413021002106031DF12F013041
:102FD0002000E9070030EA3D2030E70067082100C3
:102FE000A10042302106031DB92EFF302000E90761
:102FF000FF30EA3D2030E70067082100A100B92E2C
:1030000000340034003400340034003400345F34C1
:1030100000340034003407340034073400341434EE
:103020007F3414347F34143424342A347F342A34E3
:10303000123423341334083464346234363449345B
:103040005534223450340034053403340034003411
:1030500000341C34223441340034003441342234EE
:103060001C340034143408343E3408341434083426
:1030700008343E34083408340034503430340034DA
:103080000034083408340834083408340034603418
:1030900060340034003420341034083404340234F2
:1030A0003E345134493445343E34003442347F3464
:1030B000403400344234613451344934463421348C
:1030C000413445344B3431341834143412347F34A1
:1030D0001034273445344534453439343C344A348B
:1030E00049344934303401347134093405340334FB
:1030F0003634493449344934363406344934493451
:1031000029341E340034363436340034003400346C
:103110005634363400340034083414342234413404
:10312000003414341434143414341434003441345A
:10313000223414340834023401345134093406344E
:1031400032344934793441343E347E3411341134CC
:1031500011347E347F3449344934493436343E3472
:1031600041344134413422347F34413441342234B7
:103170001C347F3449344934493441347F34093470
:103180000934093401343E344134493449347A3401
:103190007F340834083408347F34003441347F34B9
:1031A000413400342034403441343F3401347F34DE
:1031B00008341434223441347F34403440344034B1
:1031C00040347F3402340C3402347F347F3404348E
:1031D000083410347F343E344134413441343E3479
:1031E0007F3409340934093406343E3441345134CF
:1031F00021345E347F34093419342934463446345A
:103200004934493449343134013401347F34013490
:1032100001343F344034403440343F341F34203490
:10322000403420341F343F344034383440343F3449
:103230006334143408341434633407340834703479
:10324000083407346134513449344534433400344C
:103250007F344134413400340234043408341034AF
:1032600020340034413441347F3400340434023497
:103270000134023404344034403440344034403467
:1032800000340134023404340034203454345434CF
:10329000543478347F344834443444343834383403
:1032A000443444344434203438344434443448348A
:1032B0007F343834543454345434183408347E341D
:1032C0000934013402340C345234523452343E3412
:1032D0007F340834043404347834003444347D3486
:1032E000403400342034403444343D3400347F349E
:1032F0001034283444340034003441347F344034B2
:1033000000347C3404341834043478347C34083485
:103310000434043478343834443444344434383451
:103320007C3414341434143408340834143414340D
:1033300018347C347C34083404340434083448347D
:10334000543454345434203404343F3444344034FA
:1033500020343C344034403420347C341C34203419
:10336000403420341C343C344034303440343C3419
:10337000443428341034283444340C345034503419
:1033800050343C344434643454344C344434003485
:103390000834363441340034003400347F3400348F
:1033A00000340034413436340834003410340834E6
:1033B0000834103408347834463441344634783490
:10352400FE0012001E00FE0B932A0034F400220059
:103534000D1074089E31B7260800F40022000D1403
:1035440074089E31B72608007B3021009B009C0143
:103554009A019D0108002B00181771089900720840
:103564009A000D16080080302B0098009A01CD3087
:1035740099000D16080090302A0099009A019701CD
:1035840002309800080073087204710403190800DB
:103594008030F3060800D1302900910092018E0199
:1035A4008F011F309000080020309A3198229A3100
:1035B4000630F5003030890BDD2AF50BDD2A0032A8
:1035C4000800F200F1013A3072020318EF2A303099
:1035D4007202031CEF2AF101F10A710C08006E302B
:1035E400F3007308F4006E307406031DFD2A933152
:1035F400AF239A31F22A74080800F4007408F30027
:10360400F30DF30D290010087306033973069000B7
:1036140010140630890B0C2B0032290090149018DA
:10362400112B0F08F2000E08F10008006E3461340B
:10363400693466342034683461346D3464346934F4
:10364400203461346C346A346F34683461346E34D9
:103654006934203420342034003400340034200011
:10366400A901AA01251C3A2B2708A9072808AA3D65
:103674000130A735A80D890B3B2B0130A636A50CCC
:10368400890B402B25082604031D342B2A08A60089
:103694002908A500080020005808570456040319F7
:1036A400552B8030D8065908C9005A08CA005B084F
:1036B400CB005608CC005708CD005808CE009131F5
:1036C4009C2120004908D6004A08D7004B08D8009E
:1036D40008002000A201FA1F762BF909FA09F90A59
:1036E4000319FA0AA201A20A7908F1007A08F20081
:1036F400F3018E30A0002008F4002208A100210864
:10370400F5008D3158257108F9007208FA00730824
:10371400FB000800203420342034203420342034AA
:1037240020342034203420342034203420342034F5
:103734002034203400340334203420342034203422
:1037440020342034203420342034203420342034D5
:103754002034203420342034003420309A3198220C
:103764009B310630F5003030890BB62BF50BB62BA8
:10377400003224309A3198229B310630F5003030E3
:10378400890BC22BF50BC22B003226309A319822BA
:103794009B310630F5003030890BCE2BF50BCE2B48
:1037A400003208008E30F9007908FA00FF3020005A
:1037B40023050319EA2B01302000A336A20CA10C27
:1037C400A00C890BDE2B0130F9007908FA07D82BFD
:1037D4002008F1002108F2002208F3007A08F90019
:1037E4007908F400F5018D31582571082000A000F6
:1037F4007208A1007308A2000800F70140307702A4
:10380400031808002030770203180F2C770880383B
:103814009A3198229B318030162C7708E03E80380C
:103824009A3198229B3188309A3198229B31F60143
:103834000830760203182E2C00309A319F229B31D7
:1038440000309A319F229B310130F5007508F6074C
:1038540008307602031C1E2C0130F5007508F707AA
:10386400002CFA007A03031D392C80304A2C0230D4
:103874007A06031D3F2C90304A2C03307A06031D30
:10388400452C88304A2C04307A06031D4D2C983080
:10389400F7007708F80078089A3198229C31F901EA
:1038A4001030790203180800750884007608850032
:1038B40000089A319F229C310130F5070030F63D13
:1038C4000130F7007708F907522CF31F7D2C71099A
:1038D400F7007209F8007309F900F70A0319F80AE6
:1038E4000319F90A00307707F1000030783DF2003F
:1038F4008030793DF300F61F932C7409F7007509A5
:10390400F8007609F900F70A0319F80A0319F90A05
:1039140000307707F4000030783DF5008030793DC1
:10392400F6008030F3068030F60676087302031D35
:10393400080075087202031D08007408710208006B
:1039440074087304720471040319DB2CFA01FA0A73
:10395400F41BB82C0130F135F20DF30DF40D890B85
:10396400AD2C0130F9007908FA07AA2C7408780202
:10397400031DC62C73087702031DC62C7208760239
:10398400031DC62C71087502031CD02C7108F502A6
:103994007208F63B7308F73B7408F83B0130F436C1
:1039A400F30CF20CF10C890BD12C0130FA02031D3B
:1039B400B82C7808F4007708F3007608F20075084C
:1039C400F1000800F701F41FEE2CF309F409F30ADF
:1039D4000319F40AF701F70AF21FF52CF109F209A9
:1039E400F10A0319F20A7108720403191C2DF60175
:1039F400F60AF21B072D0130F135F20D890BFE2C6E
:103A04000130F5007508F607FB2C72087402031DDB
:103A14000D2D71087302031C132D7108F302720833
:103A2400F43B0130F236F10C890B142D0130F6020F
:103A3400031D072D77080319242DF309F409F30A4C
:103A44000319F40A7408F2007308F1000800200056
:103A5400A201F91F342DF809F909F80A0319F90A22
:103A6400A201A20AFB1F3F2DFA09FB09FA0A031956
:103A7400FB0A0130A0002008A206A301A4017808D3
:103A8400790403196E2DA101A10AF91B532D0130EC
:103A9400F835F90D890B4A2D0130A0002008A10743
:103AA400472D0130A335A40D890B542D79087B02D1
:103AB400031D5E2D78087A02031C652D7808FA022E
:103AC4007908FB3B23140130F936F80C890B662D79
:103AD4000130A102031D532D22080319762DA309D9
:103AE400A409A30A0319A40A2408F9002308F80066
:103AF400080000302000A3000030A2000030A10024
:103B04000030A00074087304720471040319C52DF5
:103B1400A401A40AF41B9A2D0130F135F20DF30D22
:103B2400F40D890B8F2D0130F9007908A4078C2D31
:103B34000130A035A10DA20DA30D890B9B2D740896
:103B44007802031DAF2D73087702031DAF2D720891
:103B54007602031DAF2D71087502031CBA2D71087E
:103B6400F5027208F63B7308F73B7408F83B20141F
:103B74000130F436F30CF20CF10C890BBB2D01303F
:103B8400A402031D9A2D2308F4002208F30021083F
:103B9400F2002008F100080022000D150D111A3062
:103BA400F500F830890BD42DF50BD42D003222000A
:103BB4000D150230F6000430F500BA30890BE02D03
:103BC400F50BE02DF60BE02D003220309A319822CF
:103BD4009D311A30F500F830890BEE2DF50BEE2DE2
:103BE400003220309A3198229D311A30F500F83095
:103BF400890BFA2DF50BFA2D00320C309A319822EC
:103C04009D311A30F500F830890B062EF50B062E7F
:103C1400003201309A3198229D311A30F500F83083
:103C2400890B122EF50B122E003206309A3198228F
:103C34009D311A30F500F830890B1E2EF50B1E2E1F
:103C4400003202309A3198229D311A30F500F83052
:103C5400890B2A2EF50B2A2E003208002000440876
:103C6400C8004508C9004608CA000310490D4A0D9A
:103C7400CB004B08D1005108031D492E0030C7006A
:103C84000030C6000030C5000030C40008004408FD
:103C9400C8004508C9004608CA001730CA36C90C0E
:103CA400C80C890B502E4808CB004B08CC00C51714
:103CB400FF30C405FF30C5050030C6054408CD00FB
:103CC4004508CE004608CF00D0018E30D102D11F66
:103CD400872E5108803A8F3E0318792E0030C70092
:103CE4000030C6000030C5000030C40008000130B8
:103CF400D036CF0CCE0CCD0C890B7A2E0130C800F7
:103D04004808D1070319A02E792E18305102031C3C
:103D14009D2E0030C7000030C6000030C5000030C2
:103D2400C40008000130CD35CE0DCF0DD00D890B68
:103D3400952E0130D1025108031D942E4C0803190D
:103D4400AE2ECD09CE09CF09D009CD0A0319CE0A6A
:103D54000319CF0A0319D00A5008C7004F08C60038
:103D64004E08C5004D08C4000800F30022008D145D
:103D74001A30890BBB2E00327308F1000430F1367F
:103D8400890BC12E71080139F200F20DF20DF20D0A
:103D940022000D087206F73972068D007308F100CF
:103DA4000530F136890BD32E71080139F200F20E79
:103DB4000D087206EF3972068D007308F1000630A3
:103DC400F136890BE22E71080139F200F20EF20D80
:103DD4000D087206DF3972068D007308F100073092
:103DE400F136890BF22E71080139F200F20EF20D50
:103DF400F20D0D087206BF3972068D001A30890B58
:103E0400012F003222008D108D141A30890B082FD7
:103E1400003273080139F100F10DF10DF10D2200AA
:103E24000D087106F73971068D0073360139F100FA
:103E3400F10E0D087106EF3971068D007308F1005B
:103E44000230F136890B232F71080139F200F20E8A
:103E5400F20D0D087206DF3972068D007308F10049
:103E64000330F136890B332F71080139F200F20E59
:103E7400F20DF20D0D087206BF3972068D001A306C
:103E8400890B422F003222008D101A30890B482FE3
:103E94000032080020002B08B1002C08B2002D08C5
:103EA400B3000310320D330DB4003408B5003508E7
:103EB400031D632F0030AB000030AC000030AD00B8
:103EC40008002E08B1002F08B2003008B300031018
:103ED400320D330DB4003408BA003A08031D792FAB
:103EE4000030AB000030AC000030AD0008003A08F0
:103EF4007B3EB1003108B5072B08B1002C08B20095
:103F04002D08B3001030B336B20CB10C890B852FD9
:103F14003108B4003408BA002E08B1002F08B200EA
:103F24003008B3001030B336B20CB10C890B952FA6
:103F34003108B4003408BA068030B1003108BA053B
:103F4400AC17AF17FF30AE05FF30AF050030B0053A
:103F54000030B6000030B7000030B8000730B100C0
:103F64003108B9002B1CBC2F2E08B6072F08B73D0B
:103F74003008B83D0130AD36AC0CAB0C890BBD2F0D
:103F84000130AE35AF0DB00D890BC32F0130B9022E
:103F9400031DB42F0930B1003108B9002B1CD82FF0
:103FA4002E08B6072F08B73D3008B83D0130AD36AE
:103FB400AC0CAB0C890BD92F0130B836B70CB60C4E
:103FC400890BDF2F0130B902031DD02F3608F10011
:103FD4003708F2003808F3003508B1003108F4005E
:103FE4003A08B2003208F5008D31582571082000D6
:103FF400AB007208AC007308AD0008000134003453
:10400400003400340A34003400340034643400349E
:1040140000340034E83403340034003410342734DA
:1040240000340034A0348634013400344034423443
:104034000F34003480349634983400340034E1343E
:10404400F53405340034CA349A343B3400348034B3
:104054003F340034203441340034C8344234003412
:104064007A34443440341C3446345034C3344734F2
:10407400243474344934973418344B34BC34BE3447
:104084004C346B346E344E34033415345034793438
:10409400AD346034F33449347134003480343F3403
:1040A400CD34CC343D34D73423343C3412348334CB
:1040B4003A34B734D1343834C63427343734383406
:1040C40086343534C034D6343334CC342B3432349F
:1040D400703489343034E734DB342E34E5343C3402
:1040E4001E344234A2340D34443441344334203435
:1040F4006F34753474342034203420342034203424
:104104002034203456343A34003425342E343234B6
:0441140066340034D9
:020000040001F9
:04000E00E4C9FFFC46
:00000001FF
