:04000000803115280E
:100006006E347E14803120007F08F0002700931D97
:10001600102893112000B101B20170082000FF00E2
:100026007E10090080311728803103208031FB00C3
:10003600093084008A308500203086000030870031
:100046002530893146218031B030840089308500E1
:10005600A030860000308700193089314621DA0148
:10006600DB01DC01DD01DE01DF01E001E101E2018E
:10007600E3017E1020008D318D2DFF34F134FF34E5
:10008600FF34FF34FF34FF34FF34FF34FF34FF34D2
:10009600FF34FF34FF34FF34FF34FF34E034FF34E1
:1000A600FF34FF34FF34FF34FF34FF34FF34FF34B2
:1000B600FF34FF34FF34FF34FF34FF34F034FF34B1
:1000C600FF34FF34FF34FF34FF34FF34FF34FF3492
:1000D600FF34FF34FF348F34FF34FF34FF34FF34F2
:1000E600FF34FF34FF34FF34FF34FF34FF34FF3472
:1000F600FF34FF34FF340734FF34FF34FD34FF345C
:10010600FF34FF34FF34FF34FF34FF34FF34FF3451
:10011600FF34FF34FF348734FF34FF34F934FF34BF
:10012600FF34F934FF34FF34FF34FF34FF34FF3437
:10013600FF34FF34CF34FF34FF34FF34F034F83467
:100146007F34F034FF34CF34C334FE340F34FF34FD
:100156008334FF340334E734FF34FF34C034F034DF
:100166001F34E03467348F348334F83407349F34D3
:100176000334CE340334C734FF34FF348034F834C8
:100186000334C434473487348334F03407341F349B
:100196000334C8346134C334FF34FF34803400344C
:1001A6000034003440340F348134E03400340034F9
:1001B6000034003400340734FF34FF348034003414
:1001C6000034003460340F348134E43400340034B5
:1001D6000034003400340734FF34FF3480340034F4
:1001E6006034003460340F348134E4340034003435
:1001F6000034003400340734FF34FF34FC34013457
:10020600F8343834C0341F34E134E7340034413430
:100216008134203400340F34FF34FF34FF34FE348D
:100226003F34FE3407349F340334E334DF341F3461
:10023600E734FF34FF34FF34FF34FF34FF34FE3439
:100246001F34FF340F348F348334E734FE340F34D5
:10025600FF34FF34FF34FF34FF34FF34FF34FF3400
:100266003F34FF340F348F34C734E734FF340F3450
:10027600FF34FF34FF34FF34FF34FF34FF34FF34E0
:10028600FF34FF34FF34FF34FF34E734FF34FF34E8
:10029600FF34FF34FF34FF34FF34FF34FF34FF34C0
:1002A600FF34FF34FF34FF34FF34FF34FF34FF34B0
:1002B600FF34FF34FF34FF34FF34FF34FF34FF34A0
:1002C600FF34FF34FF34FF34FF34FF34FF34FF3490
:1002D600FF34FF34FF34FF34FF34FF34FF34FF3480
:1002E600FF34FF34FF34FF34FF34FF34FF34FF3470
:1002F600FF34FF34FF34FF34FF34FF34FF34FF3460
:10030600FF34FF34FF34FF34FF34FF34FF34FF344F
:10031600FF34FF34FF34FF34FF34FF34FF34FF343F
:10032600FF34FF34FF34FF34FF34FF34FF34FF342F
:10033600FF34FF34FF34FF34FF34FF34FF34FF341F
:10034600FF34FF34FF34FF34FF34FF34FF34FF340F
:10035600FF34FF34FF34FF34FF34FF34FF34FF34FF
:10036600FF34FF34FF34FF34FF34FF34FF34FF34EF
:10037600FF34FF34FF34FF34FF34FF34FF34FF34DF
:10038600FF34FF34FF34EF34FF34FF34FF34FF34DF
:10039600FF34FF34FF34FF34FF34FF34FF34FF34BF
:1003A600FF34FF34FF34C734F734FF34F334FF34FB
:1003B600DF34FF34FF34FF34FF34FF34FF34FF34BF
:1003C600FF34FF34FF34C334E734FF34F134FF34F1
:1003D6009C347F34FF34FF34FF34FF34FF34FF3462
:1003E600F934FF34FF34C334C734FF34F134FF34F7
:1003F6001C343F34FF34FF34FF34FF34FF34FF3402
:10040600F834FF343F34C734C734FF34FF34FF3485
:100416001E347F34FF34FF34FF34FF34FF34FF349F
:10042600FD34FE343F348734C734FF34F934FF34A7
:100436001F34FF34CF34FF34FF34FF34FF34FF342E
:10044600FF34FC341F340734C734EF34F034F93446
:100456001E347F348734FF34FF34FF34FF34FF34D7
:10046600FC34F8341E340334C734EF34E034F1344A
:100476001E343F348334FF34FF34FF34FF34FF34FB
:10048600F834F8341E3400344734CF34C034F134F1
:100496001E343F340134FF34FF34FF34FF347034EC
:1004A60000340034003400344734C034003401349E
:1004B60000343E340134FF34FF34FF34FF347034EB
:1004C6000034003400340034C734C03400340134FE
:1004D60000343E340134FF34FF34FF34FE346034DC
:1004E6000034003400340F34CF34C03400340334C5
:1004F60000347E340334FF34FF34FF34FE3470346A
:100506002634003400343F34CF34F0340C3407340E
:100516008834FC340734FF34FF34FF34FE340034AF
:10052600FF34E0341F34C734FF34FF34FF34C334A0
:10053600FF34FC347F34FF34FF34FF34FE340034A0
:10054600FF34E0343F34C334FF34FF34FF34C13466
:10055600FF34FC347F34FF34FF34FF34FF3401347E
:10056600FF34F0347F34E734FF34FF34FF34C134D2
:10057600FF34FC347F34FF34FF34FF34FF348734D8
:10058600FF34FD34FF34FF34FF34FF34FF34FF34CF
:10059600FF34FC34FF34FF34FF34FF34FF34873438
:1005A600FF34FF34FF34FF34FF34FF34FF34FF34AD
:1005B600FF34FE34FF34FF34FF34FF34FF3483341A
:1005C600FF34FF34FF34FF34FF34FF34FF34FF348D
:1005D600FF34FF34FF34FF34FF34FF34FF348334F9
:1005E600FF34FF34FF34FF34FF34FF34FF34FF346D
:1005F600FF34FF34FF34FF34FF34FF34FF34FF345D
:10060600FF34FF34FF34FF34FF34FF34FF34FF344C
:10061600FF34FF34FF34FF34FF34FF34FF34FF343C
:10062600FF34FF34FF34FF34FF34FF34FF34FF342C
:10063600FF34FF34FF34FF34FF34FF34FF34FF341C
:10064600FF34FF34FF34FF34FF34FF34FF34FF340C
:10065600FF34FF34FF34FF34FF34FF34FF34FF34FC
:10066600FF34FF34FF34FF34FF34FF34FF34FF34EC
:10067600FF34FF34FF34FF34FF34FF34FF34FF34DC
:10068600FF34FF34FF34FF34FF34FF34FF34FF34CC
:10069600FF34FF34FF34FF34FF34FF34FF34FF34BC
:1006A600FF34FF34F834E334FF34FF34FF34FF34CF
:1006B600FF34FF34FF34FF34FF34FF34FF34FF349C
:1006C600FF34FF34F834E334E134FC34FF34FF34D0
:1006D600FF34FF34FF34FF34FF34FF34FF34FF347C
:1006E600FF34FF34FC346734C034F034FF34FF3455
:1006F600FF34FF34FF34FF34FF34FF34FF34FF345C
:10070600FF34FF34FC344734C034E034FF34FF3464
:10071600FF34FF34FF34FF34FF34FF34FF34FF343B
:10072600FF34FF34FC344734C4347034FF34FF34B0
:10073600FF34FF34FF34FF34FF34FF34FF34FF341B
:10074600FF34FF34FE344F3484347834FF34FF34BE
:10075600FF34FF34FF34FF34FF34FF34FF34FF34FB
:10076600FF34FF34FE340F34C4347834FF34FF349E
:10077600FF34FF34FF34FF34FF34FF34FF34FF34DB
:10078600FF34FF34FE340F34C034F834FF34FF3402
:10079600FF34FF34FF34FF34FF34FF34FF34FF34BB
:1007A600FF34FF34FF341F34C0349834FF34FF3431
:1007B600FF34FF34FF34FF34FF34FF34FF34FF349B
:1007C600FF34FF34FF341F34E0349834FF34FF34F1
:1007D600FF34FF34FF34FF34FF34FF34FF34FF347B
:1007E600FF34FF34FF34BF34F334FD34FF34FF34B9
:1007F600FF34FF34FF34FF34FF34FF34FF34FF345B
:10080600FF34FF34FF34FF34FF34FF34FF34FF344A
:10081600FF34FF34FF34FF34FF34FF34FF34FF343A
:10082600FF34FF34FF34FF34FF34FF34FF34FF342A
:10083600FF34FF34FF34FF34FF34FF34FF34FF341A
:10084600FF34FF34FF34FF34FF34FF34FF34FF340A
:10085600FF34FF34FF34FF34FF34FF34FF34FF34FA
:10086600FF34FF34FF34FF34FF34FF34FF34FF34EA
:10087600FF34FF34FF34FF34FF34433475347234AD
:10088600723465346E347434203420342034693440
:100896006E3420346D3441343A340034FF34FF343E
:1008A600FF34FF34FF34FF34FF34FF34FF34FF34AA
:1008B600FF34FF34FF34FF34FF34FF34FF34FF349A
:1008C600FF34FF34FF34FF34FF34FF34FF34FF348A
:1008D600FF34FF34FF34FF34FF34FF34FF34FF347A
:1008E600FF34FF34FF34FF34FF34FF34FF34FF346A
:1008F600FF34FF34FF34FF34FF34FF34FF34FF345A
:10090600FF34FF34FF34FF34FF34FF34FF34FF3449
:10091600FF34FF34FF34FF34FF34FF34FF34FF3439
:10092600FF34FF34FF34FF34FF34FF34FF34FF3429
:10093600FF34FF34FF34FF34FF34FF34FF34FF3419
:10094600FF34FF34FF34FF34FF34FF34FF34FF3409
:10095600FF34FF34FF34FF34FF34FF34FF34FF34F9
:10096600FF34FF34FF34FF34FF34FF34FF34F934EF
:1009760000345F34FF34FF34FF34FF34FF34FF3478
:10098600FF34FF34FF34FF34FF34FF34FE340034C9
:10099600003400347F34FF34FF34FF34FF34FF3437
:1009A600FF34FF34FF34FF34FF34FF34F0340034B7
:1009B600003400340F34FF34FF34FF34FF34FF3487
:1009C600FF34FF34FF34FF34FF34FF348034003407
:1009D600003400340134FF34FF34FF34FF34FF3475
:1009E600FF34FF34FF34FF34FF34FE340034003468
:1009F6000034003400347F34FF34FF34FF34FF34D6
:100A0600FF34FF34FF34FF34FF34F834003401344C
:100A1600B534003400341F34FF34FF34FF34FF3460
:100A2600FF34FF34FF34FF34FF34E03400345F34E6
:100A3600FF34F83400340F34FF34FF34FF34FF340E
:100A4600FF34FF34FF34FF34FF34E0340134FF3425
:100A5600FF34FF3400340334FF34FF34FF34FF34F3
:100A6600FF34FF34FF34FF34FF34F0340F34FF34E7
:100A7600A734FF34E0340134FF34FF34FF34FF344D
:100A8600FF34FF34FF34FF34F934FE343F34F83496
:100A960000345F34F0340134FF34FF34FF34FF3464
:100AA600FF34FF34FF34FF34E0347F34FF34C03486
:100AB60000340734F8340034FF34FF34FF34FF3495
:100AC600FF34FF34FF34FF3480341F34FF340034E6
:100AD60000340334FC3400347F34FF34FF34FF34F5
:100AE600FF34FF34FF34FF3400340734FC34003461
:100AF60000340034FE3400347F34FF34FF34FF34D6
:100B0600FF34FF34FF34FF34C0340134F034003492
:100B160078340034FE3400347F34FF34FF34FF343D
:100B2600FF34FF34FF34CF34E03400344034013432
:100B3600FE340034FF3400347F34FF34FF34FF3496
:100B4600FF34FF34FF348134FC340034003407347E
:100B5600FE340034FE3400347F34FF34FF34FF3477
:100B6600FF34FF34FC3400347F34003400341F3447
:100B7600FC340034FE3400347F34FF34FF34FF3459
:100B8600FF34FF34F83400343F34C03400347F344B
:100B9600F0340034FE3400347F34FF34FF34FF3445
:100BA600FF34FF34E0340034FF34E0340134FF34E2
:100BB600C0340334FC340034FF34FF34FF34FF34D4
:100BC600FF34FF3400340334FF34FC340734DE349E
:100BD60000340734F8340034FF34FF34FF34FF3474
:100BE600FF34FC3400340F34FC347F349F34043437
:100BF60000341F34F0340134FF34FF34FF34FF3443
:100C0600FF34F83400343F34F0341F34FC340034FD
:100C160000347F34C0340334FF34FF34FF34FF34F0
:100C2600FF34C0340034FF34C0340734F8340034A1
:100C36000134FF3480340734FF34FF34FF34FF348B
:100C4600FF3400340734FE3400340734FC340034F7
:100C56000734FE3400340F34FF34FF34FF34FF34DE
:100C6600FE3400340F34FC3400341F34FF340034B7
:100C76003F34F03400343F34FF34FF34FF34FF3464
:100C8600F83400343F34F83400347F34FF34C03451
:100C96007F34C0340034FF34FF34FF34FF34FF3474
:100CA600FC3400340F34FC3400343F34C734F93498
:100CB600FF3400340334FF34FF34FF34FF34FF3491
:100CC600FF3480340334FF3400340E340034FF34F0
:100CD600FC3400340F34FF34FF34FF34FF34FF3468
:100CE600FF34C0340334FF34E034003400347F343E
:100CF600F03400343F34FF34FF34FF34FF34FF3424
:100D0600FF34F0340734FF34F034003400347F34D9
:100D1600F0340034FF34FF34FF34FF34FF34FF3443
:100D2600FF34E0341F34FF34FE3400340334FF3420
:100D3600F0340334FF34FF34FF34FF34FF34FF3420
:100D4600FF3480347F34C134FF3480340734FE34BA
:100D5600FE340F34FF34FF34FF34FF34FF34FF34E6
:100D6600FE340334FF3400347F34C0343F34F0346F
:100D76007F34BF34FF34FF34FF34FF34FF34FF3495
:100D8600F0340734FC3400341F34F134FF34C034FB
:100D96001F34FF34FF34FF34FF34FF34FF34FF3495
:100DA600E0341F34FC3400341F34FF34FF34003485
:100DB6000F34FF34FF34FF34FF34FF34FF34FF3485
:100DC60000347F34FF3480347F34FF34FC34003405
:100DD6000F34FF34FF34FF34FF34FF34FF34FC3468
:100DE6000334FF34FF34C134FF34FF34F0340034AD
:100DF6003F34FF34FF34FF34FF34FF34FF34F8341C
:100E06000734FF34FF34FF34FC343F34C03400343D
:100E1600FF34FF34FF34FF34FF34FF34FF34E03453
:100E26001F34FF34FF34FF34F0340F3400340734FA
:100E3600FF34FF34FF34FF34FF34FF34FF34E03433
:100E4600FF34FF34FF34FF34C034003400341F3421
:100E5600FF34FF34FF34FF34FF34FF34FF34FB34F8
:100E6600FF34FF34FF34FF340034003400347F3461
:100E7600FF34FF34FF34FF34FF34FF34FF34FF34D4
:100E8600FF34FF34FF34FC34003400340134FF34C3
:100E9600FF34FF34FF34FF34FF34FF34FF34FF34B4
:100EA600FF34FF34FF34F0340E3400340734FF349B
:100EB600FF34FF34FF34FF34FF34FF34FF34FF3494
:100EC600FF34FF34FF34C0343F3480341F34FF34E2
:100ED600FF34FF34FF34FF34FF34FF34FF34FF3474
:100EE600FF34FF34FF340034FF34E0347F34FF3402
:100EF600FF34FF34FF34FF34FF34FF34FF34FF3454
:100F0600FF34FF34FC340334FF34F934FF34FF3448
:100F1600FF34FF34FF34FF34FF34FF34FF34FF3433
:100F2600FF34FF34F0340F34FF34FF34FF34FF3422
:100F3600FF34FF34FF34FF34FF34FF34FF34FF3413
:100F4600FF34FF34C0343F34FF34FF34FF34FF3402
:100F5600FF34FF34FF34FF34FF34FF34FF34FF34F3
:100F6600FF34FF340034FF34FF34FF34FF34FF34E2
:100F7600FF34FF34FF34FF34FF34FF34FF34FF34D3
:100F8600FF34FF340334FF34FF34FF34FF34FF34BF
:100F9600FF34FF34FF34FF34FF34FF34FF34FF34B3
:100FA600FF34FF349F34FF34FF34FF34FF34FF3403
:100FB600FF34FF34FF34FF34FF34FF34FF34FF3493
:100FC600FF34FF34FF34FF34FF34FF34FF34FF3483
:100FD600FF34FF34FF34FF34FF34FF34FF34FF3473
:100FE600FF34FF34FF34FF34FF34FF34FF34FF3463
:100FF600FF34FF34FF34FF34FF34FF34FF34FF3453
:10100600FF34FF34FF34FF34FF34FF34FF34FF3442
:10101600FF34FF34FF34FF34FF34FF34FF34FF3432
:10102600FF34FF34FF34FF34FF34FF34FF34FF3422
:10103600FF34FF34FF34FF34FF34FF34FF34FF3412
:10104600FF34FF34FF34FF34FF34FF34FF34FF3402
:10105600FF34FF34FF34FF34FF34FF34FF34FF34F2
:10106600FF34FF34FF34FF34FF34FF34FF34FF34E2
:10107600FF34FF34FF34FF34FF34FF34FF34FF34D2
:10108600FF34FF34FF34FF34FF34FF34FF34FF34C2
:0C109600FF34FF34FF34FF34FF34FF341C
:10128000A0302B008E0001308D000800FE001200FF
:101290001E00FE0B47290034F40022000D107408D4
:1012A0008B3159230800F40022000D1474088B318F
:1012B000592308007B3021009B009C019A019D016D
:1012C00008002B000E1771088F00720890000D1493
:1012D0000800F0302900910092018E018F011F302B
:1012E0009000080021009713F0308E00F0302400A9
:1012F0008E0023008E010800203089314C21893175
:101300000630F5003030890B8329F50B8329003234
:1013100008006E30F3007308F4006E307406031D8D
:1013200095298E31B82689318A2974080800F4007D
:101330007408F300F30DF30D290010087306033948
:101340007306900010140630890BA429003229007E
:1013500090149018A9290F08F2000E08F100080057
:101360006E346134693466342034683461346D34E9
:1013700064346934203461346C346A346F346834D2
:1013800061346E3469342034203420340034003425
:101390000034F901FA01751CD1297708F90778089A
:1013A000FA3D0130F735F80D890BD2290130F636B8
:1013B000F50C890BD72975087604031DCB297A080B
:1013C000F6007908F5000800203089314C21893178
:1013D0000630F5003030890BEB29F50BEB29003294
:1013E000243089314C2189310630F5003030890BA9
:1013F000F729F50BF7290032263089314C21893144
:101400000630F5003030890B032AF50B032A003231
:101410000800203420342034203420342034203478
:10142000203420342034203420342034203420341C
:10143000203400340834023403342034203420347F
:1014400020342034203420342034203420342034FC
:101450002034203420342034203400342000450847
:1014600046040319562AFA01FA0AC61B412A01301A
:10147000C535C60D890B382A0130F9007908FA07FD
:10148000352A46084802031D472A45084702031C1F
:101490004D2A4508C7024608C83B0130C636C50C70
:1014A000890B4E2A0130FA02031D412A4808C60062
:1014B0004708C5000800F70140307702031808000C
:1014C0002030770203186B2A7708803889314C2145
:1014D0008A318030722A7708E03E803889314C2189
:1014E0008A31883089314C218A31F6010830760200
:1014F00003188A2A0030893153218A31003089311A
:1015000053218A310130F5007508F607083076025C
:10151000031C7A2A0130F5007508F7075C2AFA00E7
:101520007A03031D952A8030A62A02307A06031D0D
:101530009B2A9030A62A03307A06031DA12A883000
:10154000A62A04307A06031DA92A9830F7007708E6
:10155000F800780889314C218A31F901103079027C
:101560000318080075088400760885000008893192
:1015700053218A310130F5070030F63D0130F70084
:101580007708F907AE2AF601F7017108720403190A
:10159000F22AF801F80AF21BD72A0130F135F20DD0
:1015A000890BCE2A0130F5007508F807CB2A0130E7
:1015B000F635F70D890BD82A72087402031DE22A4A
:1015C00071087302031CE92A7108F3027208F43BE4
:1015D00076140130F236F10C890BEA2A0130F80258
:1015E000031DD72A7708F2007608F10008002200D0
:1015F0000D150D111A30F500F830890BFD2AF50B89
:10160000FD2A003222000D150230F6000430F500EC
:10161000BA30890B092BF50B092BF60B092B00327D
:10162000203089314C218A311A30F500F830890B8D
:10163000172BF50B172B0032203089314C218A31C2
:101640001A30F500F830890B232BF50B232B0032D1
:101650000C3089314C218A311A30F500F830890B71
:101660002F2BF50B2F2B0032013089314C218A3181
:101670001A30F500F830890B3B2BF50B3B2B003271
:10168000063089314C218A311A30F500F830890B47
:10169000472BF50B472B0032023089314C218A3120
:1016A0001A30F500F830890B532BF50B532B003211
:1016B0000800F30022008D141A30890B5D2B0032D4
:1016C0007308F1000430F136890B632B710801397E
:1016D000F200F20DF20DF20D22000D087206F7393C
:1016E00072068D007308F1000530F136890B752BF9
:1016F00071080139F200F20E0D087206EF39720618
:101700008D007308F1000630F136890B842B7108C7
:101710000139F200F20EF20D0D087206DF39720681
:101720008D007308F1000730F136890B942B710896
:101730000139F200F20EF20DF20D0D087206BF39FA
:1017400072068D001A30890BA32B003222008D10F7
:101750008D141A30890BAA2B003273080139F1005D
:10176000F10DF10DF10D22000D087106F73971062A
:101770008D0073360139F100F10E0D087106EF3955
:1017800071068D007308F1000230F136890BC52B0C
:1017900071080139F200F20EF20D0D087206DF3900
:1017A00072068D007308F1000330F136890BD52BDA
:1017B00071080139F200F20EF20DF20D0D087206F9
:1017C000BF3972068D001A30890BE42B00322200DB
:1017D0008D101A30890BEA2B003208002000D60049
:1017E0004B30CD004D08D1004A08CE004908CD004D
:1017F000C90A0319CA0A4D0884004E08850000086A
:10180000CF004F08D70057080319B72C25305706CB
:101810000319162C5708CD005608860087014D087D
:1018200081000130CD004D08D607F42BD2014A08C3
:10183000CE004908CD00C90A0319CA0A4D08840020
:101840004E0885000008D700003A0319B72C643A07
:1018500003192E2C0D3A03192E2CF42B5108860057
:101860008701403FD400413FD5000230CD004D08F4
:10187000D107D51F442C0330CD004D08D204D40924
:10188000D509D40A0319D50AD701D70A0530570656
:101890000319692C5708CD00CE01CD35CE0DF1309E
:1018A0004D07840091304E3D8500003FCF00013F41
:1018B000D00050085502031D5F2C4F085402031C32
:1018C000692C0130CD004D08D70705305706031DA0
:1018D0004A2C520803390319782C2D30CD005608B4
:1018E000860087014D0881000130CD004D08D607E4
:1018F0005708CD004D08D300FF30CD004D08D30769
:10190000530A0319F42B0A30C5000030C6005308EF
:10191000CD00CE01CD35CE0DF1304D078400913094
:101920004E3D8500003FF100013FF2005508F400F4
:101930005408F3008A31C3228B3172082000C8009A
:101940007108C7008A312E228B3120004508303EB5
:10195000CF004F08D7005708CD00560886008701F2
:101960004D0881000130CD004D08D6077C2C56086B
:101970008600870181010800F701403077020318D3
:101980000800203077020318242DF801083078026F
:101990000318872D7708803889314C218C317808DD
:1019A000803889314C218C3177082000C500C60170
:1019B000C50EC60EF030C60545080F39C604F03016
:1019C000C5057808C700C801C735C80D45084707D1
:1019D000C9004608483DCA007508490784007608D2
:1019E0004A3D85000008893153218C317708200059
:1019F000C500C601C50EC60EF030C60545080F3934
:101A0000C604F030C5057808C700C801C735C80D41
:101A100045084707C9004608483DCA004908013E35
:101A2000CB0000304A3DCC0075084B078400760897
:101A30004C3D85000008893153218C310130200054
:101A4000C5004508F807C62CF801083078020318CD
:101A5000872D7708E03E803889314C218C31780819
:101A6000883889314C218C3177082000C500C601A7
:101A7000C50EC60EF030C60545080F39C604F03055
:101A8000C5057808C700C801C735C80D4508470710
:101A9000C9004608483DCA00750849078400760811
:101AA0004A3D85000008893153218C317708200098
:101AB000C500C601C50EC60EF030C60545080F3973
:101AC000C604F030C5057808C700C801C735C80D81
:101AD00045084707C9004608483DCA004908013E75
:101AE000CB0000304A3DCC0075084B0784007608D7
:101AF0004C3D85000008893153218C310130200094
:101B0000C5004508F80708307802031C292D01306C
:101B10002000C5004508F707BD2C89315A218D31B9
:101B2000893140218D310B3021008C0023008C0144
:101B300027008C01893169218D3121008F0123001B
:101B40008F0121008D0123008D0125008D012600CC
:101B50008D01893172218D318A31F7228D318931A0
:101B6000E4218D318A315B228D314030F5008030A7
:101B7000F6008C31BC248D3115302000D9004B305B
:101B8000D800BE30890BC22DD80BC22DD90BC22D67
:101B900000008A315B228D3189317C218D3120001A
:101BA0000C0C0139D800D9015808DC005908DD00B7
:101BB0000730893197218D317208F6007108F500E0
:101BC0000530F7000030F8008931C9218D317508E2
:101BD000743E2000E000FF30763DE1002030D80068
:101BE0005808B700FB30C9009130CA006108CC002A
:101BF0006008CB0034308B31EE238D314030F5005E
:101C00008430F60003308A318F228D313430F50074
:101C10000030F60004308A318F228D3120008C197B
:101C2000152E0830B1000230B2008C18592E343015
:101C30002000D800F130890B1B2ED80B1B2E003250
:101C400020000C0C0139D800D9015808DE005908D1
:101C5000DF000C080139D800D9015F085906031DBF
:101C6000332E5E08580603194C2EFF30B107FF30A3
:101C7000B23D3208803AD800823058020830031949
:101C800031020318482E08302000B1000230B200A3
:101C900022000F108F14542E01302000B1070030A5
:101CA000B23D22000F148F1020005F08DD005E0897
:101CB000DC002030D8005808B700FB30C900913054
:101CC000CA003208F6003108F5000530F700003090
:101CD000F8008931C9218D317508013E2000CB0003
:101CE0000030763DCC0034308B31EE238D31E03046
:101CF000F5009130F60001308A318F228D31343079
:101D0000F5000030F60002308A318F228D318931A2
:101D100089218D312000D8005808A1003208D9004F
:101D20003108D8000630D835D90D890B932E5808C4
:101D3000F1005908F200893161218D3141302000D4
:101D40002106031DAB2E0130B1070030B23D20301B
:101D5000D8005808A10042302106031DD82DFF30BD
:101D6000B107FF30B23D2030D8005808A100D82D6F
:101D700022000E108E140E158E1520000E1AD12E74
:101D80000330F2000830F1007730890BC52EF10BDB
:101D9000C52EF20BC52E000020000E1ECC2E3130B9
:101DA00008008E1AE42E0330F2000830F10077307C
:101DB000890BD82EF10BD82EF20BD82E0000200064
:101DC0008E1EDF2E323008000E1BF72E0330F2007D
:101DD0000830F1007730890BEB2EF10BEB2EF20B74
:101DE000EB2E000020000E1FF22E333008008E1B59
:101DF0000A2F0330F2000830F1007730890BFE2EF5
:101E0000F10BFE2EF20BFE2E000020008E1F052F80
:101E10004130080022000E148E100E158E15200081
:101E20000E1A232F0330F2000830F1007730890BAF
:101E3000172FF10B172FF20B172F000020000E1E8B
:101E40001E2F343008008E1A362F0330F20008306F
:101E5000F1007730890B2A2FF10B2A2FF20B2A2F52
:101E6000000020008E1E312F353008000E1B492F38
:101E70000330F2000830F1007730890B3D2FF10B71
:101E80003D2FF20B3D2F000020000E1F442F363057
:101E900008008E1B5C2F0330F2000830F100773011
:101EA000890B502FF10B502FF20B502F0000200008
:101EB0008E1F572F4230080022000E148E140E1170
:101EC0008E1520000E1A752F0330F2000830F10035
:101ED0007730890B692FF10B692FF20B692F000006
:101EE00020000E1E702F373008008E1A882F033006
:101EF000F2000830F1007730890B7C2FF10B7C2F3A
:101F0000F20B7C2F000020008E1E832F383008003B
:101F10000E1B9B2F0330F2000830F1007730890B45
:101F20008F2FF10B8F2FF20B8F2F000020000E1F31
:101F3000962F393008008E1BAE2F0330F200083088
:101F4000F1007730890BA22FF10BA22FF20BA22FF9
:101F5000000020008E1FA92F4330080022000E141D
:101F60008E140E158E1120000E1AC72F0330F200AA
:101F70000830F1007730890BBB2FF10BBB2FF20B30
:101F8000BB2F000020000E1EC22F2A3008008E1A20
:101F9000DA2F0330F2000830F1007730890BCE2FB2
:101FA000F10BCE2FF20BCE2F000020008E1ED52F6E
:101FB000303008000E1BED2F0330F2000830F10026
:101FC0007730890BE12FF10BE12FF20BE12F0000AD
:101FD00020000E1FE82F233008008E1B080003305E
:101FE000F2000830F1007730890BF42FF10BF42F59
:101FF000F20BF42F000020008E1FFB2F443008004E
:1020000000340034003400340034003400345F34D1
:1020100000340034003407340034073400341434FE
:102020007F3414347F34143424342A347F342A34F3
:10203000123423341334083464346234363449346B
:102040005534223450340034053403340034003421
:1020500000341C34223441340034003441342234FE
:102060001C340034143408343E3408341434083436
:1020700008343E34083408340034503430340034EA
:102080000034083408340834083408340034603428
:102090006034003400342034103408340434023402
:1020A0003E345134493445343E34003442347F3474
:1020B000403400344234613451344934463421349C
:1020C000413445344B3431341834143412347F34B1
:1020D0001034273445344534453439343C344A349B
:1020E000493449343034013471340934053403340B
:1020F0003634493449344934363406344934493461
:1021000029341E340034363436340034003400347C
:102110005634363400340034083414342234413414
:10212000003414341434143414341434003441346A
:10213000223414340834023401345134093406345E
:1021400032344934793441343E347E3411341134DC
:1021500011347E347F3449344934493436343E3482
:1021600041344134413422347F34413441342234C7
:102170001C347F3449344934493441347F34093480
:102180000934093401343E344134493449347A3411
:102190007F340834083408347F34003441347F34C9
:1021A000413400342034403441343F3401347F34EE
:1021B00008341434223441347F34403440344034C1
:1021C00040347F3402340C3402347F347F3404349E
:1021D000083410347F343E344134413441343E3489
:1021E0007F3409340934093406343E3441345134DF
:1021F00021345E347F34093419342934463446346A
:102200004934493449343134013401347F340134A0
:1022100001343F344034403440343F341F342034A0
:10222000403420341F343F344034383440343F3459
:102230006334143408341434633407340834703489
:10224000083407346134513449344534433400345C
:102250007F344134413400340234043408341034BF
:1022600020340034413441347F34003404340234A7
:102270000134023404344034403440344034403477
:1022800000340134023404340034203454345434DF
:10229000543478347F344834443444343834383413
:1022A000443444344434203438344434443448349A
:1022B0007F343834543454345434183408347E342D
:1022C0000934013402340C345234523452343E3422
:1022D0007F340834043404347834003444347D3496
:1022E000403400342034403444343D3400347F34AE
:1022F0001034283444340034003441347F344034C2
:1023000000347C3404341834043478347C34083495
:102310000434043478343834443444344434383461
:102320007C3414341434143408340834143414341D
:1023300018347C347C34083404340434083448348D
:10234000543454345434203404343F34443440340A
:1023500020343C344034403420347C341C34203429
:10236000403420341C343C344034303440343C3429
:10237000443428341034283444340C345034503429
:1023800050343C344434643454344C344434003495
:102390000834363441340034003400347F3400349F
:1023A00000340034413436340834003410340834F6
:1023B00008341034083478344634413446347834A0
:1023C00044344134433420346F347534743420340D
:1023D0002034203469346E3420346D3476343A3409
:1023E0000034013400340A34003464340034E834F6
:0C23F000033410342734253464340034E6
:020000040001F9
:04000E00E4C9FFFC46
:00000001FF
