:04000000803115280E
:100006006E347E14803120007F08F0002700931D97
:10001600102893112000E901EA0170082000FF0072
:100026007E10090080311728803103208031FC00C2
:10003600F7308400A73085006930860000308700DD
:1000460003309931E2218031D13084009A30850025
:10005600A03086000030870022309931E2218031BD
:100066007E3084009A30850020308600013087007B
:1000760019309931E2212100DE01DF01E001E101C1
:10008600E201E301E401E501E601E701E8017E1092
:1000960020008E31782E2100D2005E302000E10053
:1000A60061082100C50020005D08E2005C08E1004F
:1000B600DC0A0319DD0A610884006208850000086D
:1000C600E30063082100D800580803192C2E2530B8
:1000D600580603197E2858082000E100210052081E
:1000E600860087012000610881000130E100610877
:1000F6002100D2075628C601C70120005C088400EB
:100106005D08850012002E3A031DCB2821004717F3
:1001160001302000DC070030DD3D2100D301D40191
:1001260020005C0884005D08850000089A313522AD
:100136008031031CD22820005C0884005D088500FD
:100146000008E100E201210054082000A600210079
:1001560053082000A5000A30A7000030A8009A31F5
:1001660097228031200061082507E3006208263DBA
:10017600E4006308D03E2100D300FF302000643D38
:100186002100D40001302000DC070030DD3D93283B
:100196002100D301D4014716D2284715EE282000A6
:1001A6005D08E2005C08E100DC0A0319DD0A61086B
:1001B60084006208850000082100D800003A03196F
:1001C6002C2E643A0319EE28023A0319D0280F3A66
:1001D6000319EE285628003046052000E1000730B6
:1001E600210047052000E200610862040319162D6C
:1001F6002100471E02290630D3000030D4004508EE
:1002060086008701403FD500413FD600423FD700D8
:1002160003302000E10061082100C5075508F10000
:100226005608F2005708F3000030F4000030F500DD
:100236000030F6009B314C2380310318372921000A
:100246005508F1005608F2005708F3009A310D22BE
:10025600803171082100D5007208D6007308D700D6
:100266000330C6040030C7042100C801C90157087D
:10027600560455040319F729D53086008701403FF7
:100286002000E100413FE200423FE300433FE4003B
:100296000F30E436E30CE20CE10C890B4C29FF30FD
:1002A6006105E50000306205E6006508823E210032
:1002B600C800FF302000663D2100C900FF30C80796
:1002C600FF30C93D03302000A5000030A600210004
:1002D60049082000A800210048082000A7009A31FC
:1002E60097228031200026082100C9002000250819
:1002F6002100C8000A30F8000030F9004908FB0068
:100306004808FA009C310F24803179082100C90081
:100316007808C800C91F9329FF30C807FF30C93DB8
:100326004803FF3A9531BC25803120003B08210067
:10033600CA0020003C082100CB0020003D08210017
:10034600CC0055082000AB00210056082000AC0068
:10035600210057082000AD0021004A082000AE0009
:1003660021004B082000AF0021004C082000B000FF
:100376009E319626803120002B082100CA002000DD
:100386002C082100CB0020002D082100CC004A08B3
:10039600F1004B08F2004C08F3000030F400803006
:1003A600F5003F30F6009B314C2380310318E029DD
:1003B600FF302100C807FF30F62921004A08F10066
:1003C6004B08F2004C08F3000030F4002030F50032
:1003D6004130F6009B314C238031031CF729013054
:1003E6002100C8070030C93D21005408803A20008A
:1003F600E10080306102031D032A0D302100530203
:1004060003182C2A210053089431572480312000E8
:100416003B08C9003C08CA003D08CB00210055082E
:100426002000CC00210056082000CD0021005708EE
:100436002000CE009031FC208031200049082100A8
:10044600D50020004A082100D60020004B082100D4
:10045600D70021004908803A2000E100803061027F
:10046600031D382A0A30210048020318632A210096
:100476005708560455040319AB2A55082000C40032
:10048600210056082000C500210057082000C6009C
:100496009D317A25803120004708460445044404EE
:1004A600031DAB2A21004908803A2000E100803074
:1004B6006102031D612A023021004802031CAB2A97
:1004C60021004A08F1004B08F2004C08F300703096
:1004D600F4008930F5004030F6009B314C23803122
:1004E6000318772AF730782AF8302100C807FF303A
:1004F600C93D48089531BC25803120003B082100C4
:10050600CA0020003C082100CB0020003D08210045
:10051600CC005508F1005608F2005708F3004A08C7
:10052600F4004B08F5004C08F6009F314A2780314D
:1005360074082100D1007308D0007208CF0071083A
:10054600CE000030D5000030D6000030D700002B9A
:10055600210055082000C400210056082000C500CF
:10056600210057082000C6009D317A2580312000E1
:1005760047082100D100200046082100D0002000B5
:1005860045082100CF00200044082100CE00510874
:100596002000A300210050082000A20021004F08DF
:1005A6002000A10021004E082000A000903100206C
:1005B600803120002008D6002108D7002208D80064
:1005C600210055082000D900210056082000DA0035
:1005D600210057082000DB009A31B3228031200029
:1005E60056082100D500200057082100D60020001B
:1005F60058082100D700C801C901D801D80A0A3015
:10060600580603193D2B58082000E100E201E135A8
:10061600E20DE135E20D003061078400A030623D55
:100626008500003FE300013FE400023FE500033F91
:10063600E600660821005102031D312B20006508E3
:1006460021005002031D312B2000640821004F02B7
:10065600031D312B2000630821004E02031C3D2B95
:1006660001302000E10061082100D8070A30580651
:10067600031D062B033046052000E1000030210053
:1006860047052000E200610862040319582B2D304B
:10069600E1002100520886008701200061088100E0
:1006A6000130E10061082100D207FF302000E1009F
:1006B60061082100D807580A0319CF2B58082000D3
:1006C600E100E201E135E20DE135E20D00306107BE
:1006D6008400A030623D8500003FF100013FF2003A
:1006E600023FF300033FF40021005108F8005008D0
:1006F600F7004F08F6004E08F5009C316124803162
:1007060074082100CD007308CC007208CB00710874
:10071600CA0000302000A8000030A7000030A60064
:100726000A30A50021004D082000AC0021004C082D
:100736002000AB0021004B082000AA0021004A0837
:100746002000A9009B318723803120002808210042
:10075600CD00200027082100CC002000260821001B
:10076600CB00200025082100CA004A08303E2000A0
:100776004B2B30302000E100210052088600870113
:100786002000610881000130E10061082100D207E4
:10079600FF30C807FF30C93D4908803A2000E10014
:1007A60080306102031DDA2B013021004802031854
:1007B600BC2B21005408803A2000E1008030610201
:1007C600031DE82B093021005302031CEC2B0830D3
:1007D600EE2B210053082000E10061082100D8001B
:1007E60058082000E100E201E11BE2036108210054
:1007F600D302200062082100D43B58080319122CAA
:100806002E302000E10021005208860087012000DA
:10081600610881000130E10061082100D207580813
:100826009531BC25803120003B082100C200200004
:100836003C082100C30020003D082100C4004208F6
:100846002000AE00210043082000AF00210044082C
:100856002000B000210055082000AB0021005608FA
:100866002000AC00210057082000AD009E319626DE
:10087600803120002B08C4002C08C5002D08C600B6
:100886009D317A258031200047082100D1002000C3
:1008960046082100D000200045082100CF00200096
:1008A60044082100CE00FF302000E100610821004D
:1008B600D807580A0319112D58082000E100E20153
:1008C600E135E20DE135E20D003061078400A0302C
:1008D600623D8500003FF100013FF200023FF30058
:1008E600033FF40021005108F8005008F7004F08B4
:1008F600F6004E08F5009C31612480317408210011
:10090600CD007308CC007208CB007108CA00003015
:100916002000A8000030A7000030A6000A30A5007D
:1009260021004D082000AC0021004C082000AB003F
:1009360021004B082000AA0021004A082000A90037
:100946009B3187238031200028082100CD0020001C
:1009560027082100CC00200026082100CB0020001B
:1009660025082100CA004A08303E2000E100210087
:100976005208860087012000610881000130E100ED
:1009860061082100D20758082000E100E201E135A4
:10099600E20DE135E20D003061078400A030623DD2
:1009A6008500003FA500013FA600023FA700033FC8
:1009B600A800210051082000AC00210050082000AA
:1009C600AB0021004F082000AA0021004E0820009D
:1009D600A9009B3187238031200028082100D100FF
:1009E600200027082100D000200026082100CF0083
:1009F60020002508542C30302000E1002100520848
:100A0600860087012000610881000130E10061084D
:100A16002100D207FF30D307FF30D43D53085404DA
:100A260003195628FE2C2100450886008701403F01
:100A36002000E100413FE20061082100CE002000D5
:100A460062082100CF00890D893B8909D000D100B9
:100A560002302000E10061082100C507D11F422DA8
:100A66000330C6040030C704CE09CF09D009D10926
:100A7600CE0A0319CF0A0319D00A0319D10A53085B
:100A86005404031D502D510850044F044E04031DF9
:100A9600502D0130D3070030D43DD801D80A0A3092
:100AA600580603198D2D58082000E100E201E135B2
:100AB600E20DE135E20D003061078400A030623DB1
:100AC6008500003FE300013FE400023FE500033FED
:100AD600E600660821005102031D812D20006508ED
:100AE60021005002031D812D2000640821004F02C1
:100AF600031D812D2000630821004E02031C8D2D4D
:100B060001302000E10061082100D8070A305806AC
:100B1600031D562D58082000E100E201E11BE20307
:100B26006208803AE30021005408803A20006302FC
:100B3600031DA12D21005308200061020318AB2DCF
:100B4600210053082000E10061082100D800C72DCC
:100B5600210058082000E100E201E11BE203210028
:100B66005408803A2000E3006208803A6302031DBD
:100B7600BF2D6108210053020318C72D2100580814
:100B8600D300D401D31BD403033021004605200033
:100B9600E1000030210047052000E2006108620400
:100BA6000319E32D2D30E10021005208860087014C
:100BB6002000610881000130E10061082100D207B0
:100BC600FF302100D307FF30D43D530A0319540ADE
:100BD6000319562800302000A8000030A700003076
:100BE600A6000A30A5002100540885005308840099
:100BF6008435850D8435850D00308407A030853D0C
:100C0600003FF100013FF200023FF300033FF40012
:100C16005108F8005008F7004F08F6004E08F50096
:100C26009C316124803174082000AC007308AB004D
:100C36007208AA007108A9009B3187238031200021
:100C46002508303EE10061082100D8005808200040
:100C5600D62D52088600870181010800FF34F13441
:100C6600FF34FF34FF34FF34FF34FF34FF34FF34E6
:100C7600FF34FF34FF34FF34FF34FF34FF34E034F5
:100C8600FF34FF34FF34FF34FF34FF34FF34FF34C6
:100C9600FF34FF34FF34FF34FF34FF34FF34F034C5
:100CA600FF34FF34FF34FF34FF34FF34FF34FF34A6
:100CB600FF34FF34FF34FF348F34FF34FF34FF3406
:100CC600FF34FF34FF34FF34FF34FF34FF34FF3486
:100CD600FF34FF34FF34FF340734FF34FF34FD3470
:100CE600FF34FF34FF34FF34FF34FF34FF34FF3466
:100CF600FF34FF34FF34FF348734FF34FF34F934D4
:100D0600FF34FF34F934FF34FF34FF34FF34FF344B
:100D1600FF34FF34FF34CF34FF34FF34FF34F03474
:100D2600F8347F34F034FF34CF34C334FE340F3418
:100D3600FF348334FF340334E734FF34FF34C034E4
:100D4600F0341F34E03467348F348334F834073496
:100D56009F340334CE340334C734FF34FF34803435
:100D6600F8340334C434473487348334F0340734D6
:100D76001F340334C8346134C334FF34FF34803441
:100D860000340034003440340F348134E03400340D
:100D960000340034003400340734FF34FF34803428
:100DA60000340034003460340F348134E4340034C9
:100DB60000340034003400340734FF34FF34803408
:100DC60000346034003460340F348134E434003449
:100DD60000340034003400340734FF34FF34FC346C
:100DE6000134F8343834C0341F34E134E734003485
:100DF60041348134203400340F34FF34FF34FF345F
:100E0600FE343F34FE3407349F340334E334DF3496
:100E16001F34E734FF34FF34FF34FF34FF34FF342C
:100E2600FE341F34FF340F348F348334E734FE34FA
:100E36000F34FF34FF34FF34FF34FF34FF34FF3404
:100E4600FF343F34FF340F348F34C734E734FF3474
:100E56000F34FF34FF34FF34FF34FF34FF34FF34E4
:100E6600FF34FF34FF34FF34FF34FF34E734FF34FC
:100E7600FF34FF34FF34FF34FF34FF34FF34FF34D4
:100E8600FF34FF34FF34FF34FF34FF34FF34FF34C4
:100E9600FF34FF34FF34FF34FF34FF34FF34FF34B4
:100EA600FF34FF34FF34FF34FF34FF34FF34FF34A4
:100EB600FF34FF34FF34FF34FF34FF34FF34FF3494
:100EC600FF34FF34FF34FF34FF34FF34FF34FF3484
:100ED600FF34FF34FF34FF34FF34FF34FF34FF3474
:100EE600FF34FF34FF34FF34FF34FF34FF34FF3464
:100EF600FF34FF34FF34FF34FF34FF34FF34FF3454
:100F0600FF34FF34FF34FF34FF34FF34FF34FF3443
:100F1600FF34FF34FF34FF34FF34FF34FF34FF3433
:100F2600FF34FF34FF34FF34FF34FF34FF34FF3423
:100F3600FF34FF34FF34FF34FF34FF34FF34FF3413
:100F4600FF34FF34FF34FF34FF34FF34FF34FF3403
:100F5600FF34FF34FF34FF34FF34FF34FF34FF34F3
:100F6600FF34FF34FF34FF34EF34FF34FF34FF34F3
:100F7600FF34FF34FF34FF34FF34FF34FF34FF34D3
:100F8600FF34FF34FF34FF34C734F734FF34F3340F
:100F9600FF34DF34FF34FF34FF34FF34FF34FF34D3
:100FA600FF34FF34FF34FF34C334E734FF34F13405
:100FB600FF349C347F34FF34FF34FF34FF34FF3476
:100FC600FF34F934FF34FF34C334C734FF34F1340B
:100FD600FF341C343F34FF34FF34FF34FF34FF3416
:100FE600FF34F834FF343F34C734C734FF34FF349A
:100FF600FF341E347F34FF34FF34FF34FF34FF34B4
:10100600FF34FD34FE343F348734C734FF34F934BB
:10101600FF341F34FF34CF34FF34FF34FF34FF3442
:10102600FF34FF34FC341F340734C734EF34F03454
:10103600F9341E347F348734FF34FF34FF34FF34F1
:10104600FF34FC34F8341E340334C734EF34E03450
:10105600F1341E343F348334FF34FF34FF34FF341D
:10106600FF34F834F8341E3400344734CF34C034F7
:10107600F1341E343F340134FF34FF34FF34FF347F
:10108600703400340034003400344734C034003443
:10109600013400343E340134FF34FF34FF34FF346E
:1010A60070340034003400340034C734C0340034A3
:1010B600013400343E340134FF34FF34FF34FE344F
:1010C60060340034003400340F34CF34C03400347C
:1010D600033400347E340334FF34FF34FF34FE34EB
:1010E60070342634003400343F34CF34F0340C34BA
:1010F60007348834FC340734FF34FF34FF34FE34BD
:101106000034FF34E0341F34C734FF34FF34FF3477
:10111600C334FF34FC347F34FF34FF34FF34FE34F1
:101126000034FF34E0343F34C334FF34FF34FF343B
:10113600C134FF34FC347F34FF34FF34FF34FF34D2
:101146000134FF34F0347F34E734FF34FF34FF34A6
:10115600C134FF34FC347F34FF34FF34FF34FF34B2
:101166008734FF34FD34FF34FF34FF34FF34FF345B
:10117600FF34FF34FC34FF34FF34FF34FF34FF34D4
:101186008734FF34FF34FF34FF34FF34FF34FF3439
:10119600FF34FF34FE34FF34FF34FF34FF34FF34B2
:1011A6008334FF34FF34FF34FF34FF34FF34FF341D
:1011B600FF34FF34FF34FF34FF34FF34FF34FF3491
:1011C6008334FF34FF34FF34FF34FF34FF34FF34FD
:1011D600FF34FF34FF34FF34FF34FF34FF34FF3471
:1011E600FF34FF34FF34FF34FF34FF34FF34FF3461
:1011F600FF34FF34FF34FF34FF34FF34FF34FF3451
:10120600FF34FF34FF34FF34FF34FF34FF34FF3440
:10121600FF34FF34FF34FF34FF34FF34FF34FF3430
:10122600FF34FF34FF34FF34FF34FF34FF34FF3420
:10123600FF34FF34FF34FF34FF34FF34FF34FF3410
:10124600FF34FF34FF34FF34FF34FF34FF34FF3400
:10125600FF34FF34FF34FF34FF34FF34FF34FF34F0
:10126600FF34FF34FF34FF34FF34FF34FF34FF34E0
:10127600FF34FF34FF34FF34FF34FF34FF34FF34D0
:10128600FF34FF34FF34F834E334FF34FF34FF34E3
:10129600FF34FF34FF34FF34FF34FF34FF34FF34B0
:1012A600FF34FF34FF34F834E334E134FC34FF34E4
:1012B600FF34FF34FF34FF34FF34FF34FF34FF3490
:1012C600FF34FF34FF34FC346734C034F034FF3469
:1012D600FF34FF34FF34FF34FF34FF34FF34FF3470
:1012E600FF34FF34FF34FC344734C034E034FF3479
:1012F600FF34FF34FF34FF34FF34FF34FF34FF3450
:10130600FF34FF34FF34FC344734C4347034FF34C4
:10131600FF34FF34FF34FF34FF34FF34FF34FF342F
:10132600FF34FF34FF34FE344F3484347834FF34D2
:10133600FF34FF34FF34FF34FF34FF34FF34FF340F
:10134600FF34FF34FF34FE340F34C4347834FF34B2
:10135600FF34FF34FF34FF34FF34FF34FF34FF34EF
:10136600FF34FF34FF34FE340F34C034F834FF3416
:10137600FF34FF34FF34FF34FF34FF34FF34FF34CF
:10138600FF34FF34FF34FF341F34C0349834FF3445
:10139600FF34FF34FF34FF34FF34FF34FF34FF34AF
:1013A600FF34FF34FF34FF341F34E0349834FF3405
:1013B600FF34FF34FF34FF34FF34FF34FF34FF348F
:1013C600FF34FF34FF34FF34BF34F334FD34FF34CD
:1013D600FF34FF34FF34FF34FF34FF34FF34FF346F
:1013E600FF34FF34FF34FF34FF34FF34FF34FF345F
:1013F600FF34FF34FF34FF34FF34FF34FF34FF344F
:10140600FF34FF34FF34FF34FF34FF34FF34FF343E
:10141600FF34FF34FF34FF34FF34FF34FF34FF342E
:10142600FF34FF34FF34FF34FF34FF34FF34FF341E
:10143600FF34FF34FF34FF34FF34FF34FF34FF340E
:10144600FF34FF34FF34FF34FF34FF34FF34FF34FE
:10145600FF34FF34FF34FF34FF34FF344334753434
:101466007234723465346E3474342034203420344B
:1014760069346E3420346D3441343A340034FF34E8
:10148600FF34FF34FF34FF34FF34FF34FF34FF34BE
:10149600FF34FF34FF34FF34FF34FF34FF34FF34AE
:1014A600FF34FF34FF34FF34FF34FF34FF34FF349E
:1014B600FF34FF34FF34FF34FF34FF34FF34FF348E
:1014C600FF34FF34FF34FF34FF34FF34FF34FF347E
:1014D600FF34FF34FF34FF34FF34FF34FF34FF346E
:1014E600FF34FF34FF34FF34FF34FF34FF34FF345E
:1014F600FF34FF34FF34FF34FF34FF34FF34FF344E
:10150600FF34FF34FF34FF34FF34FF34FF34FF343D
:10151600FF34FF34FF34FF34FF34FF34FF34FF342D
:10152600FF34FF34FF34FF34FF34FF34FF34FF341D
:10153600FF34FF34FF34FF34FF34FF34FF34FF340D
:10154600FF34FF34FF34FF34FF34FF34FF34FF34FD
:10155600F93400345F34FF34FF34FF34FF34FF3492
:10156600FF34FF34FF34FF34FF34FF34FF34FE34DE
:101576000034003400347F34FF34FF34FF34FF344A
:10158600FF34FF34FF34FF34FF34FF34FF34F034CC
:101596000034003400340F34FF34FF34FF34FF349A
:1015A600FF34FF34FF34FF34FF34FF34FF3480341C
:1015B6000034003400340134FF34FF34FF34FF3488
:1015C600FF34FF34FF34FF34FF34FF34FE3400347D
:1015D60000340034003400347F34FF34FF34FF34E9
:1015E600FF34FF34FF34FF34FF34FF34F834003463
:1015F6000134B534003400341F34FF34FF34FF3473
:10160600FF34FF34FF34FF34FF34FF34E03400345A
:101616005F34FF34F83400340F34FF34FF34FF34C2
:10162600FF34FF34FF34FF34FF34FF34E034013439
:10163600FF34FF34FF3400340334FF34FF34FF3407
:10164600FF34FF34FF34FF34FF34FF34F0340F34FB
:10165600FF34A734FF34E0340134FF34FF34FF3461
:10166600FF34FF34FF34FF34FF34F934FE343F34A3
:10167600F83400345F34F0340134FF34FF34FF347F
:10168600FF34FF34FF34FF34FF34E0347F34FF345B
:10169600C03400340734F8340034FF34FF34FF34E8
:1016A600FF34FF34FF34FF34FF3480341F34FF34FB
:1016B600003400340334FC3400347F34FF34FF3408
:1016C600FF34FF34FF34FF34FF3400340734FC3476
:1016D600003400340034FE3400347F34FF34FF34E9
:1016E600FF34FF34FF34FF34FF34C0340134F034A8
:1016F600003478340034FE3400347F34FF34FF3451
:10170600FF34FF34FF34FF34CF34E0340034403448
:101716000134FE340034FF3400347F34FF34FF34A8
:10172600FF34FF34FF34FF348134FC34003400349A
:101736000734FE340034FE3400347F34FF34FF3483
:10174600FF34FF34FF34FC3400347F34003400347B
:101756001F34FC340034FE3400347F34FF34FF344D
:10176600FF34FF34FF34F83400343F34C0340034DF
:101776007F34F0340034FE3400347F34FF34FF34D9
:10178600FF34FF34FF34E0340034FF34E0340134F6
:10179600FF34C0340334FC340034FF34FF34FF34E8
:1017A600FF34FF34FF3400340334FF34FC34073491
:1017B600DE3400340734F8340034FF34FF34FF34A9
:1017C600FF34FF34FC3400340F34FC347F349F3450
:1017D600043400341F34F0340134FF34FF34FF3452
:1017E600FF34FF34F83400343F34F0341F34FC3413
:1017F600003400347F34C0340334FF34FF34FF3404
:10180600FF34FF34C0340034FF34C0340734F834B6
:1018160000340134FF3480340734FF34FF34FF349E
:10182600FF34FF3400340734FE3400340734FC340C
:1018360000340734FE3400340F34FF34FF34FF34F1
:10184600FF34FE3400340F34FC3400341F34FF34CC
:1018560000343F34F03400343F34FF34FF34FF3477
:10186600FF34F83400343F34F83400347F34FF3426
:10187600C0347F34C0340034FF34FF34FF34FF34C7
:10188600FF34FC3400340F34FC3400343F34C734A6
:10189600F934FF3400340334FF34FF34FF34FF34AB
:1018A600FF34FF3480340334FF3400340E34003404
:1018B600FF34FC3400340F34FF34FF34FF34FF347C
:1018C600FF34FF34C0340334FF34E03400340034D2
:1018D6007F34F03400343F34FF34FF34FF34FF34B8
:1018E600FF34FF34F0340734FF34F034003400346E
:1018F6007F34F0340034FF34FF34FF34FF34FF34D8
:10190600FF34FF34E0341F34FF34FE340034033434
:10191600FF34F0340334FF34FF34FF34FF34FF3434
:10192600FF34FF3480347F34C134FF3480340734CD
:10193600FE34FE340F34FF34FF34FF34FF34FF34FB
:10194600FF34FE340334FF3400347F34C0343F3474
:10195600F0347F34BF34FF34FF34FF34FF34FF34B8
:10196600FF34F0340734FC3400341F34F134FF34D0
:10197600C0341F34FF34FF34FF34FF34FF34FF34E8
:10198600FF34E0341F34FC3400341F34FF34FF349A
:1019960000340F34FF34FF34FF34FF34FF34FF3498
:1019A600FF3400347F34FF3480347F34FF34FC341A
:1019B60000340F34FF34FF34FF34FF34FF34FF3478
:1019C600FC340334FF34FF34C134FF34FF34F034C5
:1019D60000343F34FF34FF34FF34FF34FF34FF3428
:1019E600F8340734FF34FF34FF34FC343F34C0345A
:1019F6000034FF34FF34FF34FF34FF34FF34FF3448
:101A0600E0341F34FF34FF34FF34F0340F34003435
:101A16000734FF34FF34FF34FF34FF34FF34FF3420
:101A2600E034FF34FF34FF34FF34C0340034003474
:101A36001F34FF34FF34FF34FF34FF34FF34FF34E8
:101A4600FB34FF34FF34FF34FF34003400340034F9
:101A56007F34FF34FF34FF34FF34FF34FF34FF3468
:101A6600FF34FF34FF34FF34FC34003400340134D7
:101A7600FF34FF34FF34FF34FF34FF34FF34FF34C8
:101A8600FF34FF34FF34FF34F0340E3400340734AF
:101A9600FF34FF34FF34FF34FF34FF34FF34FF34A8
:101AA600FF34FF34FF34FF34C0343F3480341F34F6
:101AB600FF34FF34FF34FF34FF34FF34FF34FF3488
:101AC600FF34FF34FF34FF340034FF34E0347F3416
:101AD600FF34FF34FF34FF34FF34FF34FF34FF3468
:101AE600FF34FF34FF34FC340334FF34F934FF345D
:101AF600FF34FF34FF34FF34FF34FF34FF34FF3448
:101B0600FF34FF34FF34F0340F34FF34FF34FF3436
:101B1600FF34FF34FF34FF34FF34FF34FF34FF3427
:101B2600FF34FF34FF34C0343F34FF34FF34FF3416
:101B3600FF34FF34FF34FF34FF34FF34FF34FF3407
:101B4600FF34FF34FF340034FF34FF34FF34FF34F6
:101B5600FF34FF34FF34FF34FF34FF34FF34FF34E7
:101B6600FF34FF34FF340334FF34FF34FF34FF34D3
:101B7600FF34FF34FF34FF34FF34FF34FF34FF34C7
:101B8600FF34FF34FF349F34FF34FF34FF34FF3417
:101B9600FF34FF34FF34FF34FF34FF34FF34FF34A7
:101BA600FF34FF34FF34FF34FF34FF34FF34FF3497
:101BB600FF34FF34FF34FF34FF34FF34FF34FF3487
:101BC600FF34FF34FF34FF34FF34FF34FF34FF3477
:101BD600FF34FF34FF34FF34FF34FF34FF34FF3467
:101BE600FF34FF34FF34FF34FF34FF34FF34FF3457
:101BF600FF34FF34FF34FF34FF34FF34FF34FF3447
:101C0600FF34FF34FF34FF34FF34FF34FF34FF3436
:101C1600FF34FF34FF34FF34FF34FF34FF34FF3426
:101C2600FF34FF34FF34FF34FF34FF34FF34FF3416
:101C3600FF34FF34FF34FF34FF34FF34FF34FF3406
:101C4600FF34FF34FF34FF34FF34FF34FF34FF34F6
:101C5600FF34FF34FF34FF34FF34FF34FF34FF34E6
:101C6600FF34FF34FF34FF34FF34FF34FF34FF34D6
:0E1C7600FF34FF34FF34FF34FF34FF34FF34FB
:101C8800FA007A03031D4A2E80305B2E02307A0652
:101C9800031D502E90305B2E03307A06031D562EFE
:101CA80088305B2E04307A06031D5E2E9830F700CC
:101CB8007708F80078089931E8218E31F901103059
:101CC8007902031808007508840076088500000862
:101CD8009931EF218E310130F5070030F63D0130A2
:101CE800F7007708F907632E9931F6218E31A7316D
:101CF800FA278E319A3105228E31BF3021008E00AD
:101D0800FC3023008E000B3021008C0023008C0156
:101D180027008C019A3115228E3121008D01230074
:101D28008D0125008D0126008D019A311E228E31EC
:101D38009C31B4248E319A31F3228E319B31182391
:101D48008E313130F5008630F60090312B208E31FF
:101D580015302000E8004B30E700BE30890BB22E6A
:101D6800E70BB22EE80BB22E00009B3118238E3100
:101D78009A3128228E3120000C0C0139E700E80145
:101D880067082100E300200068082100E400003013
:101D98002000AB00A030AC003B30AD0005309A31DC
:101DA80065228E317208FA007108F9009A315122C1
:101DB8008E3179082000AE007A08AF007B08B000A9
:101DC8009E3196268E3120002B082100DE0020004F
:101DD8002C082100DF0020002D082100E000203021
:101DE8002000E70067082100B40048302000C9003F
:101DF800E130CA00BD30CB0021005E082000CC00D5
:101E080021005F082000CD00210060082000CE00DE
:101E18009031FC208E31200049082100D900200093
:101E28004A082100DA0020004B082100DB000030BE
:101E38002000DC00A830DD00210059082000DE0069
:101E480021005A082000DF0021005B082000E00084
:101E5800B13080314E208E313130F5008A30F600B5
:101E680003308E3144268E31B130F5000030F60053
:101E780004308E3144268E3120008C19472F0830CB
:101E8800E9000230EA008C188C2F34302000E7007B
:101E9800F130890B4D2FE70B4D2F003220000C0C31
:101EA8000139E700E80167082100E500200068081B
:101EB8002100E60020000C080139E700E8012100B4
:101EC800660820006806031D6D2F210065082000A4
:101ED80067060319832FFF30E907FF30EA3D6A08D8
:101EE800803AE70082306702083003196902031854
:101EF800872F08302000E9000230EA00872F0130E0
:101F0800E9070030EA3D21006608E4006508E300BF
:101F180020302000E70067082100B40020006A088C
:101F2800A6006908A5000530A7000030A8009A316E
:101F380097228E3120002508013E2100DC00003068
:101F48002000263D2100DD0005302000DC00A830FF
:101F5800DD0021005D082000DF0021005C08200072
:101F6800DE00B13080314E208E317630F500A03061
:101F7800F60001308E3144268E31B130F500003044
:101F8800F60002308E3144268E319A3143228E314A
:101F98002000E70067082100A10020006A08E80087
:101FA8006908E7000630E735E80D890BD72F670881
:101FB800F1006808F2009931FD218E31413021008D
:101FC8002106031DF12F01302000E9070030EA3D0A
:101FD8002030E70067082100A10042302106031DD8
:101FE800CB2EFF302000E907FF30EA3D2030E70024
:101FF80067082100A100CB2E8E30F9007908FA007D
:10200800FF30200023050319162801302000A336CD
:10201800A20CA10CA00C890B0A280130F900790840
:10202800FA0704282008F1002108F2002208F3002A
:102038007A08F9007908F400F5019D311625710830
:102048002000A0007208A1007308A2000800F70190
:1020580040307702031808002030770203189328CD
:10206800F801083078020318F62877088038993183
:10207800E8219031780880389931E8219031770843
:102088002000A000A101A00EA10EF030A10520089B
:102098000F39A104F030A0057808A200A301A235E9
:1020A800A30D20082207A4002108233DA5007508D8
:1020B800240784007608253D850000089931EF2122
:1020C800903177082000A000A101A00EA10EF030E9
:1020D800A10520080F39A104F030A0057808A20056
:1020E800A301A235A30D20082207A4002108233D3F
:1020F800A5002408013EA6000030253DA70075086C
:10210800260784007608273D850000089931EF21CD
:10211800903101302000A0002008F8073528F80188
:10212800083078020318F6287708E03E803899319D
:10213800E8219031780888389931E821903177087A
:102148002000A000A101A00EA10EF030A1052008DA
:102158000F39A104F030A0057808A200A301A23528
:10216800A30D20082207A4002108233DA500750817
:10217800240784007608253D850000089931EF2161
:10218800903177082000A000A101A00EA10EF03028
:10219800A10520080F39A104F030A0057808A20095
:1021A800A301A235A30D20082207A4002108233D7E
:1021B800A5002408013EA6000030253DA7007508AB
:1021C800260784007608273D850000089931EF210D
:1021D800903101302000A0002008F807083078026C
:1021E800031C982801302000A0002008F7072C289D
:1021F80020004908CF004A08D0004B08D10003103E
:10220800500D510DD2005208D5004C08CF004D0892
:10221800D0004E08D1000310500D510DD2005208C5
:10222800D4005508031924295408550203182B29EA
:102238005503FF3A5407CF0019304F02031C2B29CE
:102248004C08C9004D08CA004E08CB0008005408C5
:10225800031908005508540203183A295403FF3A91
:102268005507CF0019304F02031808000630CF0079
:102278004F08D300CB1BD317CE1B5317CA17FF30F9
:10228800C905FF30CA050030CB05CD17FF30CC0596
:10229800FF30CD050030CE055408550203187629C5
:1022A8000130CC35CD0DCE0D890B55290130D40226
:1022B80054085506031971290130D3025308073908
:1022C8000319712954290130CB36CA0CC90C890B62
:1022D80068290130CF004F08D5075508540603195F
:1022E8009B2967295508540203189B290130C935D1
:1022F800CA0DCB0D890B7B290130D5025408550630
:10230800031997290130D30253080739031997296C
:102318007A290130CE36CD0CCC0C890B8E290130B0
:10232800CF004F08D40755085406031D8D29D31F25
:10233800AD29FF30C906FF30CA06FF30CB06013091
:10234800C907003003180130CA07003003180130EC
:10235800CB07531FBF29FF30CC06FF30CD06FF3017
:10236800CE060130CC07003003180130CD0700300D
:1023780003180130CE07D3014908CC074A08CD3DE0
:102388004B08CE3DCE1FDA29FF30CC06FF30CD06F4
:10239800FF30CE060130CC07003003180130CD07DE
:1023A800003003180130CE07D301D30A4C08F100DE
:1023B8004D08F2004E08F3005508CF004F08F4000E
:1023C8005308D0005008F5009D31162571082000EB
:1023D800C9007208CA007308CB0008007130860073
:1023E8008701403F2000A000413FA100423FA200DA
:1023F800433FA3000310220D230DA4002408AD00C1
:102408002D08031D102A0030F4000030F3000030BE
:10241800F2000030F1000800743086008701403F68
:10242800A000413FA100423FA200433FA300031088
:10243800220D230DA4002408AC002C08031D2D2A0E
:102448000030F4000030F3000030F2000030F100FA
:102458000800713086008701003081044131003066
:102468008104413180308104413100308104713070
:1024780086008701FF3081054131FF3081054131F8
:10248800FF308105413100308105743086008701B5
:1024980000308104413100308104413180308104B1
:1024A800413100308104743086008701FF30810596
:1024B8004131FF3081054131FF3081054131003024
:1024C80081050030AB000030AA000030A9000030C0
:1024D800A8007F30AD02A0302C07A0002008AD0274
:1024E8002030A0002008AC000130A835A90DAA0DA5
:1024F800AB0D890B792A743086008701403FA00014
:10250800413FA100423FA200433FA3007130860033
:102518008701403FA400413FA500423FA600433F3A
:10252800A70023082702031DA32A22082602031D49
:10253800A32A21082502031DA32A20082402031C1C
:10254800C02A743086008701403FA000413FA100A7
:10255800423FA200433FA300713086008701200854
:10256800810241312108813B41312208813B4131BF
:102578002308813B7D31281471308600870181351D
:102588004131810D4131810D4131810D7D31013064
:10259800AC02031D782AAD1FED2A2D08803A9F3E14
:1025A8000318DF2A0030F4000030F3000030F20096
:1025B8000030F10008000130AB36AA0CA90CA80CB9
:1025C800890BE02A0130A0002008AD070319062B6B
:1025D800DF2A20302D02031C032B0030F4000030CA
:1025E800F3000030F2000030F10008000130A83597
:1025F800A90DAA0DAB0D890BFB2A0130AD022D08E0
:10260800031DFA2A2B08F4002A08F3002908F2000F
:102618002808F100080022000F108F140F158F15DD
:1026280020000F1A282B0330F2000830F100773011
:10263800890B1C2BF10B1C2BF20B1C2B0000200010
:102648000F1E232B313008008F1A3B2B0330F2006A
:102658000830F1007730890B2F2BF10B2F2BF20B61
:102668002F2B000020008F1E362B323008000F1B46
:102678004E2B0330F2000830F1007730890B422BE3
:10268800F10B422BF20B422B000020000F1F492BAD
:10269800333008008F1B612B0330F2000830F10043
:1026A8007730890B552BF10B552BF20B552B00006E
:1026B80020008F1F5C2B4130080022000F148F1060
:1026C8000F158F1520000F1A7A2B0330F2000830EF
:1026D800F1007730890B6E2BF10B6E2BF20B6E2B02
:1026E800000020000F1E752B343008008F1A8D2B28
:1026F8000330F2000830F1007730890B812BF10BA1
:10270800812BF20B812B000020008F1E882B353087
:1027180008000F1BA02B0330F2000830F1007730BF
:10272800890B942BF10B942BF20B942B00002000B7
:102738000F1F9B2B363008008F1BB32B0330F20082
:102748000830F1007730890BA72BF10BA72BF20B80
:10275800A72B000020008F1FAE2B4230080022005C
:102768000F148F140F118F1520000F1ACC2B033064
:10277800F2000830F1007730890BC02BF10BC02B29
:10278800F20BC02B000020000F1EC72B37300800AB
:102798008F1ADF2B0330F2000830F1007730890BF5
:1027A800D32BF10BD32BF20BD32B000020008F1E61
:1027B800DA2B383008000F1BF22B0330F2000830F8
:1027C800F1007730890BE62BF10BE62BF20BE62BA9
:1027D800000020000F1FED2B393008008F1B052C3F
:1027E8000330F2000830F1007730890BF92BF10B38
:1027F800F92BF20BF92B000020008F1F002C43301F
:10280800080022000F148F140F158F1120000F1AC3
:102818001E2C0330F2000830F1007730890B122C9F
:10282800F10B122CF20B122C000020000F1E192C99
:102838002A3008008F1A312C0330F2000830F100DA
:102848007730890B252CF10B252CF20B252C000059
:1028580020008F1E2C2C303008000F1B442C033016
:10286800F2000830F1007730890B382CF10B382C46
:10287800F20B382C000020000F1F3F2C23300800DB
:102888008F1B08000330F2000830F1007730890B05
:102898004B2CF10B4B2CF20B4B2C000020008F1F04
:1028A800522C443008002000C8006E304802031C37
:1028B800172D0A30F8000030F9004808BE00BF01A3
:1028C8003E08F3003F08F4006430F1000030F200E5
:1028D8009B31CA2394317208FB007108FA009C31BD
:1028E8000F2494317808093E2000A5000030793D76
:1028F800A6000330A7000030A8009A31972294312F
:10290800200026088500250884004F308407A03061
:10291800853D003FAB00013FAC00023FAD00643095
:10292800F8000030F9004808C000C1014008FA006A
:102938004108FB009C310F2494317808123E200096
:10294800A5000030793DA6000330A7000030A8009C
:102958009A319722943120002608850025088400A2
:102968004F308407A030853D003FAE00013FAF00E7
:10297800023FB0009E319626943120002B08C500F6
:102988002C08C6002D08C7004808BE00BF013E0835
:10299800F3003F08F4000A30F1000030F2009B31E8
:1029A800CA23943172082000A6007108A5000330DC
:1029B800A7000030A8009A319722943120002608F9
:1029C8008500250884004F308407A030853D003FEE
:1029D800AB00013FAC00023FAD004508AE00460821
:1029E800AF004708B0009E319626943120002B088E
:1029F800C2002C08C3002D08C4000030AB00003012
:102A0800AC003F30AD004208AE004308AF004408B8
:102A1800B0009E31962620002B08BB002C08BC0075
:102A28002D08BD0008000B304802031C8F2D4808F4
:102A3800BE00BF013E08F3003F08F4000A30F10071
:102A48000030F2009B31CA23943172082000A6009E
:102A58007108A5000330A7000030A8009A3197221A
:102A68009431200026088500250884004F3084070B
:102A7800A030853D003FAB00013FAC00023FAD00F8
:102A88000A30F8000030F9004808C000C1014008C9
:102A9800FA004108FB009C310F2494317808093E64
:102AA8002000A5000030793DA6000330A7000030C3
:102AB800A8009A319722943120002608850025081D
:102AC80084004F308407A030853D003FAE00013FB1
:102AD800AF00023FB0009E319626943120002B08AB
:102AE800C5002C08C6002D08C7000030AB00003018
:102AF800AC003F30AD004508AE004608AF004708BF
:102B0800B0009E31962620002B08BB002C08BC0084
:102B18002D08BD0008000030AB000030AC003F308D
:102B2800AD004808BE00BF013E08A5003F08A6004A
:102B38000330A7000030A8009A3197229431200072
:102B480026088500250884004F308407A030853D7D
:102B5800003FAE00013FAF00023FB0009E31962615
:102B680020002B08BB002C08BC002D08BD00080065
:102B78002000C300C31FE12EC309C30A4308803ADB
:102B8800123E031C652E0A30F8000030F900430895
:102B9800F300F401F31BF4036430F1000030F20099
:102BA8009B31CA2395317208FB007108FA009C31E9
:102BB8000F2495317808093E2000A5000030793DA2
:102BC800A6000330A7000030A8009A31972295315B
:102BD800200026088500250884004F308407A0308F
:102BE800853D003FAB00013FAC00023FAD006430C3
:102BF800F8000030F9004308FA00FB01FA1BFB0358
:102C08009C310F2495317808123E2000A500003031
:102C1800793DA6000330A7000030A8009A3197221A
:102C28009531200026088500250884004F30840748
:102C3800A030853D003FAE00013FAF00023FB0002D
:102C48009E319626953120002B08C0002C08C10023
:102C58002D08C2004308F300F401F31BF4030A3003
:102C6800F1000030F2009B31CA2395317208200030
:102C7800A6007108A5000330A7000030A8009A310B
:102C880097229531200026088500250884004F30BA
:102C98008407A030853D003FAB00013FAC00023FF8
:102CA800AD004008AE004108AF004208B0009E31B8
:102CB800962620002B08BB002C08BC002D08BD0060
:102CC80008004308803A753E031CC42E4308F300ED
:102CD800F401F31BF4030A30F1000030F2009B31D9
:102CE800CA23953172082000A6007108A500033098
:102CF800A7000030A8009A319722953120002608B5
:102D08008500250884004F308407A030853D003FAA
:102D1800AB00013FAC00023FAD000A30F8000030C4
:102D2800F9004308FA00FB01FA1BFB039C310F244E
:102D380095317808093E2000A5000030793DA600AD
:102D48000330A7000030A8009A319722953120005F
:102D580026088500250884004F308407A030853D6B
:102D6800003FAE00013FAF00023FB0009E31962603
:102D780020002B08BB002C08BC002D08BD00080053
:102D88004308BE00BF013E08A5003F08A600033067
:102D9800A7000030A8009A31972220002608850055
:102DA800250884004F308407A030853D003FBB00D4
:102DB800013FBC00023FBD0008004308803A123EB4
:102DC800031C842F0A30F8000030F9004308F30090
:102DD800F401F31BF4036430F1000030F2009B317E
:102DE800CA2395317208FB007108FA009C310F2440
:102DF80095317808093E2000A5000030793DA600ED
:102E08000330A7000030A8009A319722953120009E
:102E1800260885002508840028308407A030853DD1
:102E2800003FAB00013FAC00023FAD006430F8004A
:102E38000030F9004308FA00FB01FA1BFB039C3140
:102E48000F2495317808123E2000A5000030793D06
:102E5800A6000330A7000030A8009A3197229531C8
:102E68002000260885002508840028308407A03023
:102E7800853D003FAE00013FAF00023FB0009E31EC
:102E88009626953120002B08C0002C08C1002D087B
:102E9800C2004308F300F401F31BF4030A30F10005
:102EA8000030F2009B31CA23953172082000A60039
:102EB8007108A5000330A7000030A8009A319722B6
:102EC80095312000260885002508840028308407CD
:102ED800A030853D003FAB00013FAC00023FAD0094
:102EE8004008AE004108AF004208B0009E31962667
:102EF80020002B08BB002C08BC002D08BD000800D2
:102F08004308803A753E031CE32F4308F300F4019D
:102F1800F31BF4030A30F1000030F2009B31CA239E
:102F2800953172082000A6007108A5000330A7009B
:102F38000030A8009A319722953120002608850094
:102F48002508840028308407A030853D003FAB0069
:102F5800013FAC00023FAD000A30F8000030F90034
:102F68004308FA00FB01FA1BFB039C310F2495313F
:102F78007808093E2000A5000030793DA6000330FE
:102F8800A7000030A8009A31972295312000260822
:102F980085002508840028308407A030853D003F3F
:102FA800AE00013FAF00023FB0009E3196262000E0
:102FB8002B08BB002C08BC002D08BD0008004308E6
:102FC800BE00BF013E08A5003F08A6000330A700C9
:102FD8000030A8009A31972220002608850025088D
:102FE800840028308407A030853D003FBB00013FA6
:102FF800BC00023FBD000800003400340034003437
:103008000034003400345F340034003400340734B2
:1030180000340734003414347F3414347F341434C7
:1030280024342A347F342A341234233413340834B1
:1030380064346234363449345534223450340034DC
:10304800053403340034003400341C342234413451
:1030580000340034413422341C340034143408342D
:103068003E3408341434083408343E340834083400
:103078000034503430340034003408340834083410
:1030880008340834003460346034003400342034A8
:1030980010340834043402343E345134493445344D
:1030A8003E34003442347F34403400344234613496
:1030B8005134493446342134413445344B34313465
:1030C8001834143412347F341034273445344534DA
:1030D800453439343C344A34493449343034013481
:1030E80071340934053403343634493449344934A5
:1030F800363406344934493429341E3400343634DD
:103108003634003400340034563436340034003455
:10311800083414342234413400341434143414344C
:10312800143414340034413422341434083402344E
:103138000134513409340634323449347934413451
:103148003E347E341134113411347E347F344934A2
:103158004934493436343E344134413441342234DC
:103168007F344134413422341C347F344934493467
:10317800493441347F3409340934093401343E3444
:103188004134493449347A347F34083408340834B3
:103198007F34003441347F344134003420344034A7
:1031A80041343F3401347F340834143422344134F8
:1031B8007F3440344034403440347F3402340C345B
:1031C80002347F347F340434083410347F343E347E
:1031D8004134413441343E347F34093409340934AC
:1031E80006343E344134513421345E347F3409345A
:1031F800193429344634463449344934493431344D
:10320800013401347F34013401343F3440344034D4
:1032180040343F341F342034403420341F343F348A
:103228004034383440343F3463341434083414346C
:103238006334073408347034083407346134513443
:1032480049344534433400347F3441344134003404
:103258000234043408341034203400344134413406
:103268007F340034043402340134023404344034EA
:10327800403440344034403400340134023404349F
:103288000034203454345434543478347F3448343B
:1032980044344434383438344434443444342034A2
:1032A80038344434443448347F343834543454340F
:1032B8005434183408347E340934013402340C345C
:1032C8005234523452343E347F3408340434043493
:1032D8007834003444347D3440340034203440346D
:1032E80044343D3400347F341034283444340034BA
:1032F800003441347F34403400347C34043418348E
:10330800043478347C34083404340434783438345D
:1033180044344434443438347C3414341434143449
:10332800083408341434143418347C347C340834A5
:103338000434043408344834543454345434203471
:1033480004343F344434403420343C344034403432
:1033580020347C341C342034403420341C343C3435
:103368004034303440343C34443428341034283425
:1033780044340C345034503450343C344434643481
:1033880054344C3444340034083436344134003432
:10339800003400347F34003400340034413436348F
:1033A80008340034103408340834103408347834BD
:0833B8004634413446347834F8
:1033C400FE0012001E00FE0BE3290034F40022006C
:1033D4000D1074089E3101260800F40022000D141B
:1033E40074089E31012608007B3021009B009C015B
:1033F4009A019D0108002B000E17710899007208AC
:103404009A000D14080090302A0099009A0197013F
:10341400023098000800730872047104031908004C
:103424008030F3060800D1302900910092018E010A
:103434008F011F309000080021009713F0308F0097
:10344400F03024008F0023008F01080020309931D0
:10345400E8219A310630F5003030890B2F2AF50B1C
:103464002F2A00320800F200F1013A3072020318E8
:10347400412A30307202031C412AF101F10A710C15
:1034840008006E30F3007308F4006E307406031DF8
:103494004F2A93310F239A31442A7408080079087B
:1034A400F1007A08F200F3018E302000A000200819
:1034B400F400F5019D3116257108F9007208FA002F
:1034C4007308FB000800F4007408F300F30DF30D17
:1034D400290010087306033973069000101406308F
:1034E400890B722A0032290090149018772A0F0849
:1034F400F2000E08F10008006E3461346934663459
:103504002034683461346D34643469342034613473
:103514006C346A346F34683461346E346934203402
:10352400203420340034003400342000A901AA01DE
:10353400251CA02A2708A9072808AA3D0130A73579
:10354400A80D890BA12A0130A636A50C890BA62A41
:1035540025082604031D9A2A2A08A6002908A5007E
:10356400080020005808570456040319BB2A803069
:10357400D8065908C9005A08CA005B08CB00560887
:10358400CC005708CD005808CE009031FC20200014
:103594004908D6004A08D7004B08D8000800203450
:1035A4002034203420342034203420342034203477
:1035B4002034203420342034203420342034003487
:1035C4002034203420342034203420342034203457
:1035D4002034203420342034203420342034203447
:1035E400003420309931E8219A310630F50030302A
:1035F400890BFA2AF50BFA2A003224309931E82192
:103604009A310630F5003030890B062BF50B062B6A
:10361400003226309931E8219A310630F5003030F5
:10362400890B122BF50B122B00320800F7014030E6
:10363400770203180800203077020318282B770834
:1036440080389931E8219B3180302F2B7708E03E78
:1036540080389931E8219B3188309931E8219B31B8
:10366400F601083076020318472B00309931EF2118
:103674009B3100309931EF219B310130F500750801
:10368400F60708307602031C372B0130F500750865
:10369400F707192BF31F622B7109F7007209F80061
:1036A4007309F900F70A0319F80A0319F90A003033
:1036B4007707F1000030783DF2008030793DF30067
:1036C400F61F782B7409F7007509F8007609F900DC
:1036D400F70A0319F80A0319F90A00307707F40006
:1036E4000030783DF5008030793DF6008030F306F7
:1036F4008030F60676087302031D0800750872020E
:10370400031D08007408710208002000280827041B
:10371400260425040319C12BFB01FB0AA81B9E2BBD
:103724000130A535A60DA70DA80D890B932B0130EB
:10373400FA007A08FB07902B28082C02031DAC2BF7
:1037440027082B02031DAC2B26082A02031DAC2BD1
:1037540025082902031CB62B2508A9022608AA3B22
:103764002708AB3B2808AC3B0130A836A70CA60CB5
:10377400A50C890BB72B0130FB02031D9E2B2C08D3
:10378400A8002B08A7002A08A6002908A5000800FD
:10379400F701F41FD42BF309F409F30A0319F40A0B
:1037A400F701F70AF21FDB2BF109F209F10A0319F9
:1037B400F20A710872040319022CF601F60AF21BCC
:1037C400ED2B0130F135F20D890BE42B0130F500BE
:1037D4007508F607E12B72087402031DF32B7108B8
:1037E4007302031CF92B7108F3027208F43B0130D5
:1037F400F236F10C890BFA2B0130F602031DED2B86
:10380400770803190A2CF309F409F30A0319F40AD3
:103814007408F2007308F10008002000A201F91FE7
:103824001A2CF809F909F80A0319F90AA201A20ADB
:10383400FB1F252CFA09FB09FA0A0319FB0A0130BC
:10384400A0002008A206A301A401780879040319A2
:10385400542CA101A10AF91B392C0130F835F90DBA
:10386400890B302C0130A0002008A1072D2C013039
:10387400A335A40D890B3A2C79087B02031D442C33
:1038840078087A02031C4B2C7808FA027908FB3B6F
:1038940023140130F936F80C890B4C2C0130A102A9
:1038A400031D392C220803195C2CA309A409A30ABB
:1038B4000319A40A2408F9002308F80008000030BA
:1038C4002000A3000030A2000030A1000030A000BE
:1038D40074087304720471040319AB2CA401A40AC0
:1038E400F41B802C0130F135F20DF30DF40D890B2E
:1038F400752C0130F9007908A407722C0130A03529
:10390400A10DA20DA30D890B812C74087802031D4F
:10391400952C73087702031D952C72087602031DFB
:10392400952C71087502031CA02C7108F50272080D
:10393400F63B7308F73B7408F83B20140130F43667
:10394400F30CF20CF10C890BA12C0130A402031D21
:10395400802C2308F4002208F3002108F200200838
:10396400F100080022000D150D111A30F500F83091
:10397400890BBA2CF50BBA2C003222000D1502303B
:10398400F6000430F500BA30890BC62CF50BC62CB2
:10399400F60BC62C003220309931E8219C311A30C4
:1039A400F500F830890BD42CF50BD42C00322030E0
:1039B4009931E8219C311A30F500F830890BE02C5C
:1039C400F50BE02C00320C309931E8219C311A308F
:1039D400F500F830890BEC2CF50BEC2C003201309F
:1039E4009931E8219C311A30F500F830890BF82C14
:1039F400F50BF82C003206309931E8219C311A304D
:103A0400F500F830890B042DF50B042D003202303B
:103A14009931E8219C311A30F500F830890B102DCA
:103A2400F50B102D00320800740803191E2D7308BD
:103A340072047104031D2F2D0030F1000030F200D8
:103A44000030F30008000130F6007608F407013076
:103A5400F336F20CF10C890B2A2DFE307305031991
:103A6400482D252D0130F6007608F4070130F107C2
:103A7400003003180130F207003003180130F30757
:103A84000130F336F20CF10C890B432DFF30730532
:103A94000319552D342D0130F4020130F135F20DA6
:103AA400F30D890B502DF21B5B2D023074020318A9
:103AB4004D2D7418632DFF30F1057F30F205FF3072
:103AC400F3050310F40C7408F600F701F801103044
:103AD400F635F70DF80D890B6A2D7608F104770891
:103AE400F2047808F304750803190800F3170800B2
:103AF40020004408C8004508C9004608CA0003104D
:103B0400490D4A0DCB004B08D1005108031D932DDC
:103B14000030C7000030C6000030C5000030C400CB
:103B240008004408C8004508C9004608CA00173000
:103B3400CA36C90CC80C890B9A2D4808CB004B080F
:103B4400CC00C517FF30C405FF30C5050030C605DD
:103B54004408CD004508CE004608CF00D0018E3081
:103B6400D102D11FD12D5108803A8F3E0318C32DA5
:103B74000030C7000030C6000030C5000030C4006B
:103B840008000130D036CF0CCE0CCD0C890BC42DDF
:103B94000130C8004808D1070319EA2DC32D183095
:103BA4005102031CE72D0030C7000030C60000306E
:103BB400C5000030C40008000130CD35CE0DCF0D56
:103BC400D00D890BDF2D0130D1025108031DDE2DEC
:103BD4004C080319F82DCD09CE09CF09D009CD0A17
:103BE4000319CE0A0319CF0A0319D00A5008C700D3
:103BF4004F08C6004E08C5004D08C4000800F30075
:103C040022008D141A30890B052E00327308F1003E
:103C14000430F136890B0B2E71080139F200F20DD4
:103C2400F20DF20D22000D087206F73972068D00AE
:103C34007308F1000530F136890B1D2E7108013926
:103C4400F200F20E0D087206EF3972068D00730849
:103C5400F1000630F136890B2C2E71080139F2007F
:103C6400F20EF20D0D087206DF3972068D0073082C
:103C7400F1000730F136890B3C2E71080139F2004E
:103C8400F20EF20DF20D0D087206BF3972068D00A8
:103C94001A30890B4B2E003222008D108D141A30ED
:103CA400890B522E003273080139F100F10DF10D28
:103CB400F10D22000D087106F73971068D00733677
:103CC4000139F100F10E0D087106EF3971068D000E
:103CD4007308F1000230F136890B6D2E7108013939
:103CE400F200F20EF20D0D087206DF3972068D0035
:103CF4007308F1000330F136890B7D2E7108013908
:103D0400F200F20EF20DF20D0D087206BF397206C2
:103D14008D001A30890B8C2E003222008D101A303F
:103D2400890B922E0032080020002B08B1002C08C9
:103D3400B2002D08B3000310320D330DB400340863
:103D4400B5003508031DAD2E0030AB000030AC00CB
:103D54000030AD0008002E08B1002F08B200300872
:103D6400B3000310320D330DB4003408BA003A081E
:103D7400031DC32E0030AB000030AC000030AD009A
:103D840008003A087B3EB1003108B5072B08B100A2
:103D94002C08B2002D08B3001030B336B20CB10CAD
:103DA400890BCF2E3108B4003408BA002E08B100B4
:103DB4002F08B2003008B3001030B336B20CB10C87
:103DC400890BDF2E3108B4003408BA068030B10004
:103DD4003108BA05AC17AF17FF30AE05FF30AF0599
:103DE4000030B0050030B6000030B7000030B80035
:103DF4000730B1003108B9002B1C062F2E08B60776
:103E04002F08B73D3008B83D0130AD36AC0CAB0CD3
:103E1400890B072F0130AE35AF0DB00D890B0D2F77
:103E24000130B902031DFE2E0930B1003108B9007A
:103E34002B1C222F2E08B6072F08B73D3008B83D9B
:103E44000130AD36AC0CAB0C890B232F0130B836E6
:103E5400B70CB60C890B292F0130B902031D1A2F98
:103E64003608F1003708F2003808F3003508B100CD
:103E74003108F4003A08B2003208F5009D311625E5
:103E840071082000AB007208AC007308AD00080094
:103E94007108F7007208F8007308F9000310780D30
:103EA400790DFA007A082000A5002508031D632F68
:103EB4000030F4000030F3000030F2000030F10074
:103EC40008007408F7007508F8007608F900031074
:103ED400780D790DFA007A08A4002408031D7B2FBD
:103EE4000030F4000030F3000030F2000030F10044
:103EF4000800F217FF30F105FF30F2050030F3053A
:103F0400F517FF30F405FF30F5050030F6050030F5
:103F1400A3000030A2000030A1000030A0007F30D8
:103F2400A50298302407F7007708A5021830F70097
:103F34007708A4000130A035A10DA20DA30D890BB3
:103F44009D2F76087302031DAD2F75087202031DA1
:103F5400AD2F74087102031CB62F7408F1027508A2
:103F6400F23B7608F33B20140130F135F20DF30DEA
:103F7400890BB72F0130A402031D9C2FA51FDE2F30
:103F84002508803A973E0318D02F0030F400003003
:103F9400F3000030F2000030F10008000130A336D5
:103FA400A20CA10CA00C890BD12F0130F7007708CB
:103FB400A5070319F72FD02F18302502031CF42F5F
:103FC4000030F4000030F3000030F2000030F10063
:103FD40008000130A035A10DA20DA30D890BEC2F13
:103FE4000130A5022508031DEB2F2308F400220845
:103FF400F3002108F2002008F10008000134003425
:10400400003400340A34003400340034643400349E
:1040140000340034E83403340034003410342734DA
:1040240000340034A0348634013400344034423443
:104034000F34003480349634983400340034E1343E
:10404400F53405340034CA349A343B3400348034B3
:104054003F340034203441340034C8344234003412
:104064007A34443440341C3446345034C3344734F2
:10407400243474344934973418344B34BC34BE3447
:104084004C346B346E344E34033415345034793438
:10409400AD346034F33449347134003480343F3403
:1040A400CD34CC343D34D73423343C3412348334CB
:1040B4003A34B734D1343834C63427343734383406
:1040C40086343534C034D6343334CC342B3432349F
:1040D400703489343034E734DB342E34E5343C3402
:1040E4001E344234A2340D34443441344334203435
:1040F4006F347534743420342034203469346E348D
:0A41040020346D3476343A34003470
:104FEE00083402340334A0302B009800FF308D00BB
:104FFE00080025342E3432346634003425346434BB
:02500E0000346C
:020000040001F9
:04000E00E4C9FFFC46
:00000001FF
